{
	"RefTest.sol": {
		"ArrayTest": {
			"abi": [
				{
					"inputs": [
						{
							"internalType": "uint256",
							"name": "_maxBlance",
							"type": "uint256"
						}
					],
					"stateMutability": "nonpayable",
					"type": "constructor"
				},
				{
					"inputs": [
						{
							"internalType": "uint8",
							"name": "_number",
							"type": "uint8"
						}
					],
					"name": "addNumber",
					"outputs": [],
					"stateMutability": "nonpayable",
					"type": "function"
				},
				{
					"inputs": [
						{
							"internalType": "address",
							"name": "_user",
							"type": "address"
						}
					],
					"name": "addUser",
					"outputs": [],
					"stateMutability": "nonpayable",
					"type": "function"
				},
				{
					"inputs": [],
					"name": "createMemoryArray",
					"outputs": [],
					"stateMutability": "view",
					"type": "function"
				},
				{
					"inputs": [
						{
							"internalType": "uint256",
							"name": "",
							"type": "uint256"
						}
					],
					"name": "numbers",
					"outputs": [
						{
							"internalType": "uint256",
							"name": "",
							"type": "uint256"
						}
					],
					"stateMutability": "view",
					"type": "function"
				}
			],
			"devdoc": {
				"kind": "dev",
				"methods": {},
				"version": 1
			},
			"evm": {
				"assembly": "    /* \"RefTest.sol\":60:1567  contract ArrayTest {\r... */\n  mstore(0x40, 0xa0)\n    /* \"RefTest.sol\":1079:1115  Donation(msg.value, block.timestamp) */\n  mload(0x40)\n  dup1\n  0x40\n  add\n  0x40\n  mstore\n  dup1\n    /* \"RefTest.sol\":1088:1097  msg.value */\n  callvalue\n    /* \"RefTest.sol\":1079:1115  Donation(msg.value, block.timestamp) */\n  dup2\n  mstore\n  0x20\n  add\n    /* \"RefTest.sol\":1099:1114  block.timestamp */\n  timestamp\n    /* \"RefTest.sol\":1079:1115  Donation(msg.value, block.timestamp) */\n  dup2\n  mstore\n  pop\n    /* \"RefTest.sol\":1058:1115  Donation donation1 = Donation(msg.value, block.timestamp) */\n  0x0d\n  0x00\n  dup3\n  add\n  mload\n  dup2\n  0x00\n  add\n  sstore\n  0x20\n  dup3\n  add\n  mload\n  dup2\n  0x01\n  add\n  sstore\n  pop\n  pop\n    /* \"RefTest.sol\":1162:1238  Donation({\r... */\n  mload(0x40)\n  dup1\n  0x40\n  add\n  0x40\n  mstore\n  dup1\n    /* \"RefTest.sol\":1189:1198  msg.value */\n  callvalue\n    /* \"RefTest.sol\":1162:1238  Donation({\r... */\n  dup2\n  mstore\n  0x20\n  add\n    /* \"RefTest.sol\":1215:1230  block.timestamp */\n  timestamp\n    /* \"RefTest.sol\":1162:1238  Donation({\r... */\n  dup2\n  mstore\n  pop\n    /* \"RefTest.sol\":1142:1238  Donation donation = Donation({\r... */\n  0x0f\n  0x00\n  dup3\n  add\n  mload\n  dup2\n  0x00\n  add\n  sstore\n  0x20\n  dup3\n  add\n  mload\n  dup2\n  0x01\n  add\n  sstore\n  pop\n  pop\n    /* \"RefTest.sol\":1318:1329  Color.green */\n  0x00\n    /* \"RefTest.sol\":1297:1329  Color defaultColor = Color.green */\n  0x11\n  exp(0x0100, 0x00)\n  dup2\n  sload\n  dup2\n  0xff\n  mul\n  not\n  and\n  swap1\n  dup4\n  0x02\n  dup2\n  gt\n  iszero\n  tag_1\n  jumpi\n  invalid\ntag_1:\n  mul\n  or\n  swap1\n  sstore\n  pop\n    /* \"RefTest.sol\":1490:1564  constructor(uint256 _maxBlance) {\r... */\n  callvalue\n  dup1\n  iszero\n  tag_2\n  jumpi\n  0x00\n  dup1\n  revert\ntag_2:\n  pop\n  mload(0x40)\n  sub(codesize, bytecodeSize)\n  dup1\n  bytecodeSize\n  dup4\n  codecopy\n  dup2\n  dup2\n  add\n  0x40\n  mstore\n  0x20\n  dup2\n  lt\n  iszero\n  tag_3\n  jumpi\n  0x00\n  dup1\n  revert\ntag_3:\n  dup2\n  add\n  swap1\n  dup1\n  dup1\n  mload\n  swap1\n  0x20\n  add\n  swap1\n  swap3\n  swap2\n  swap1\n  pop\n  pop\n  pop\n    /* \"RefTest.sol\":1546:1556  _maxBlance */\n  dup1\n    /* \"RefTest.sol\":1533:1556  maxBalance = _maxBlance */\n  0x80\n  dup2\n  dup2\n  mstore\n  pop\n  pop\n    /* \"RefTest.sol\":1490:1564  constructor(uint256 _maxBlance) {\r... */\n  pop\n    /* \"RefTest.sol\":60:1567  contract ArrayTest {\r... */\n  mload(0x80)\n  codecopy(0x00, dataOffset(sub_0), dataSize(sub_0))\n  assignImmutable(\"0x24036ccf201a67256250eabe66d3f9fd72f9c4d022f225a8ee964be060dcb993\")\n  return(0x00, dataSize(sub_0))\nstop\n\nsub_0: assembly {\n        /* \"RefTest.sol\":60:1567  contract ArrayTest {\r... */\n      mstore(0x40, 0x80)\n      callvalue\n      dup1\n      iszero\n      tag_1\n      jumpi\n      0x00\n      dup1\n      revert\n    tag_1:\n      pop\n      jumpi(tag_2, lt(calldatasize, 0x04))\n      shr(0xe0, calldataload(0x00))\n      dup1\n      0x421b2d8b\n      eq\n      tag_3\n      jumpi\n      dup1\n      0x9b64ed5f\n      eq\n      tag_4\n      jumpi\n      dup1\n      0xc59083f5\n      eq\n      tag_5\n      jumpi\n      dup1\n      0xd39fa233\n      eq\n      tag_6\n      jumpi\n    tag_2:\n      0x00\n      dup1\n      revert\n        /* \"RefTest.sol\":371:552  function addUser(address _user) external{\r... */\n    tag_3:\n      tag_7\n      0x04\n      dup1\n      calldatasize\n      sub\n      0x20\n      dup2\n      lt\n      iszero\n      tag_8\n      jumpi\n      0x00\n      dup1\n      revert\n    tag_8:\n      dup2\n      add\n      swap1\n      dup1\n      dup1\n      calldataload\n      0xffffffffffffffffffffffffffffffffffffffff\n      and\n      swap1\n      0x20\n      add\n      swap1\n      swap3\n      swap2\n      swap1\n      pop\n      pop\n      pop\n      tag_9\n      jump\t// in\n    tag_7:\n      stop\n        /* \"RefTest.sol\":280:363  function addNumber(uint8 _number) external {\r... */\n    tag_4:\n      tag_10\n      0x04\n      dup1\n      calldatasize\n      sub\n      0x20\n      dup2\n      lt\n      iszero\n      tag_11\n      jumpi\n      0x00\n      dup1\n      revert\n    tag_11:\n      dup2\n      add\n      swap1\n      dup1\n      dup1\n      calldataload\n      0xff\n      and\n      swap1\n      0x20\n      add\n      swap1\n      swap3\n      swap2\n      swap1\n      pop\n      pop\n      pop\n      tag_12\n      jump\t// in\n    tag_10:\n      stop\n        /* \"RefTest.sol\":560:929  function createMemoryArray() external view {\r... */\n    tag_5:\n      tag_13\n      tag_14\n      jump\t// in\n    tag_13:\n      stop\n        /* \"RefTest.sol\":129:150  uint[] public numbers */\n    tag_6:\n      tag_15\n      0x04\n      dup1\n      calldatasize\n      sub\n      0x20\n      dup2\n      lt\n      iszero\n      tag_16\n      jumpi\n      0x00\n      dup1\n      revert\n    tag_16:\n      dup2\n      add\n      swap1\n      dup1\n      dup1\n      calldataload\n      swap1\n      0x20\n      add\n      swap1\n      swap3\n      swap2\n      swap1\n      pop\n      pop\n      pop\n      tag_17\n      jump\t// in\n    tag_15:\n      mload(0x40)\n      dup1\n      dup3\n      dup2\n      mstore\n      0x20\n      add\n      swap2\n      pop\n      pop\n      mload(0x40)\n      dup1\n      swap2\n      sub\n      swap1\n      return\n        /* \"RefTest.sol\":371:552  function addUser(address _user) external{\r... */\n    tag_9:\n        /* \"RefTest.sol\":444:446  10 */\n      0x0a\n        /* \"RefTest.sol\":430:441  users_count */\n      0x0b\n      0x00\n      swap1\n      sload\n      swap1\n      0x0100\n      exp\n      swap1\n      div\n      0xff\n      and\n        /* \"RefTest.sol\":430:446  users_count < 10 */\n      0xff\n      and\n      lt\n        /* \"RefTest.sol\":422:483  require(users_count < 10, \"number of users is limited to 10\") */\n      tag_19\n      jumpi\n      mload(0x40)\n      0x08c379a000000000000000000000000000000000000000000000000000000000\n      dup2\n      mstore\n      0x04\n      add\n      dup1\n      dup1\n      0x20\n      add\n      dup3\n      dup2\n      sub\n      dup3\n      mstore\n      0x20\n      dup2\n      mstore\n      0x20\n      add\n      dup1\n      0x6e756d626572206f66207573657273206973206c696d6974656420746f203130\n      dup2\n      mstore\n      pop\n      0x20\n      add\n      swap2\n      pop\n      pop\n      mload(0x40)\n      dup1\n      swap2\n      sub\n      swap1\n      revert\n    tag_19:\n        /* \"RefTest.sol\":515:520  _user */\n      dup1\n        /* \"RefTest.sol\":494:499  users */\n      0x01\n        /* \"RefTest.sol\":500:511  users_count */\n      0x0b\n      0x00\n      swap1\n      sload\n      swap1\n      0x0100\n      exp\n      swap1\n      div\n      0xff\n      and\n        /* \"RefTest.sol\":494:512  users[users_count] */\n      0xff\n      and\n      0x0a\n      dup2\n      lt\n      tag_20\n      jumpi\n      invalid\n    tag_20:\n      add\n      0x00\n        /* \"RefTest.sol\":494:520  users[users_count] = _user */\n      0x0100\n      exp\n      dup2\n      sload\n      dup2\n      0xffffffffffffffffffffffffffffffffffffffff\n      mul\n      not\n      and\n      swap1\n      dup4\n      0xffffffffffffffffffffffffffffffffffffffff\n      and\n      mul\n      or\n      swap1\n      sstore\n      pop\n        /* \"RefTest.sol\":531:542  users_count */\n      0x0b\n      0x00\n        /* \"RefTest.sol\":531:544  users_count++ */\n      dup2\n      dup2\n      swap1\n      sload\n      swap1\n      0x0100\n      exp\n      swap1\n      div\n      0xff\n      and\n      dup1\n      swap3\n      swap2\n      swap1\n      0x01\n      add\n      swap2\n      swap1\n      0x0100\n      exp\n      dup2\n      sload\n      dup2\n      0xff\n      mul\n      not\n      and\n      swap1\n      dup4\n      0xff\n      and\n      mul\n      or\n      swap1\n      sstore\n      pop\n      pop\n        /* \"RefTest.sol\":371:552  function addUser(address _user) external{\r... */\n      pop\n      jump\t// out\n        /* \"RefTest.sol\":280:363  function addNumber(uint8 _number) external {\r... */\n    tag_12:\n        /* \"RefTest.sol\":334:341  numbers */\n      0x00\n        /* \"RefTest.sol\":347:354  _number */\n      dup2\n        /* \"RefTest.sol\":334:355  numbers.push(_number) */\n      swap1\n      dup1\n      0x01\n      dup2\n      sload\n      add\n      dup1\n      dup3\n      sstore\n      dup1\n      swap2\n      pop\n      pop\n      0x01\n      swap1\n      sub\n      swap1\n      0x00\n      mstore\n      keccak256(0x00, 0x20)\n      add\n      0x00\n      swap1\n      swap2\n      0xff\n      and\n      swap1\n      swap2\n      swap1\n      swap2\n      pop\n      sstore\n        /* \"RefTest.sol\":280:363  function addNumber(uint8 _number) external {\r... */\n      pop\n      jump\t// out\n        /* \"RefTest.sol\":560:929  function createMemoryArray() external view {\r... */\n    tag_14:\n        /* \"RefTest.sol\":614:641  uint256[20] memory numbers2 */\n      tag_25\n      tag_26\n      jump\t// in\n    tag_25:\n        /* \"RefTest.sol\":666:667  1 */\n      0x01\n        /* \"RefTest.sol\":652:660  numbers2 */\n      dup2\n        /* \"RefTest.sol\":661:662  0 */\n      0x00\n        /* \"RefTest.sol\":652:663  numbers2[0] */\n      0x14\n      dup2\n      lt\n      tag_27\n      jumpi\n      invalid\n    tag_27:\n      0x20\n      mul\n      add\n        /* \"RefTest.sol\":652:667  numbers2[0] = 1 */\n      dup2\n      dup2\n      mstore\n      pop\n      pop\n        /* \"RefTest.sol\":692:693  2 */\n      0x02\n        /* \"RefTest.sol\":678:686  numbers2 */\n      dup2\n        /* \"RefTest.sol\":687:688  1 */\n      0x01\n        /* \"RefTest.sol\":678:689  numbers2[1] */\n      0x14\n      dup2\n      lt\n      tag_28\n      jumpi\n      invalid\n    tag_28:\n      0x20\n      mul\n      add\n        /* \"RefTest.sol\":678:693  numbers2[1] = 2 */\n      dup2\n      dup2\n      mstore\n      pop\n      pop\n        /* \"RefTest.sol\":706:722  uint256 user_num */\n      0x00\n        /* \"RefTest.sol\":725:740  numbers2.length */\n      0x14\n        /* \"RefTest.sol\":706:740  uint256 user_num = numbers2.length */\n      swap1\n      pop\n        /* \"RefTest.sol\":753:776  address[] memory users2 */\n      0x00\n        /* \"RefTest.sol\":793:801  user_num */\n      dup2\n        /* \"RefTest.sol\":779:802  new address[](user_num) */\n      0xffffffffffffffff\n      dup2\n      gt\n      dup1\n      iszero\n      tag_29\n      jumpi\n      0x00\n      dup1\n      revert\n    tag_29:\n      pop\n      mload(0x40)\n      swap1\n      dup1\n      dup3\n      mstore\n      dup1\n      0x20\n      mul\n      0x20\n      add\n      dup3\n      add\n      0x40\n      mstore\n      dup1\n      iszero\n      tag_30\n      jumpi\n      dup2\n      0x20\n      add\n      0x20\n      dup3\n      mul\n      dup1\n      calldatasize\n      dup4\n      calldatacopy\n      dup1\n      dup3\n      add\n      swap2\n      pop\n      pop\n      swap1\n      pop\n    tag_30:\n      pop\n        /* \"RefTest.sol\":753:802  address[] memory users2 = new address[](user_num) */\n      swap1\n      pop\n        /* \"RefTest.sol\":825:835  msg.sender */\n      caller\n        /* \"RefTest.sol\":813:819  users2 */\n      dup2\n        /* \"RefTest.sol\":820:821  0 */\n      0x00\n        /* \"RefTest.sol\":813:822  users2[0] */\n      dup2\n      mload\n      dup2\n      lt\n      tag_31\n      jumpi\n      invalid\n    tag_31:\n      0x20\n      mul\n      0x20\n      add\n      add\n        /* \"RefTest.sol\":813:835  users2[0] = msg.sender */\n      swap1\n      0xffffffffffffffffffffffffffffffffffffffff\n      and\n      swap1\n      dup2\n      0xffffffffffffffffffffffffffffffffffffffff\n      and\n      dup2\n      mstore\n      pop\n      pop\n        /* \"RefTest.sol\":560:929  function createMemoryArray() external view {\r... */\n      pop\n      pop\n      pop\n      jump\t// out\n        /* \"RefTest.sol\":129:150  uint[] public numbers */\n    tag_17:\n      0x00\n      dup2\n      dup2\n      sload\n      dup2\n      lt\n      tag_32\n      jumpi\n      0x00\n      dup1\n      revert\n    tag_32:\n      swap1\n      0x00\n      mstore\n      keccak256(0x00, 0x20)\n      add\n      0x00\n      swap2\n      pop\n      swap1\n      pop\n      sload\n      dup2\n      jump\t// out\n    tag_26:\n      mload(0x40)\n      dup1\n      0x0280\n      add\n      0x40\n      mstore\n      dup1\n      0x14\n      swap1\n      0x20\n      dup3\n      mul\n      dup1\n      calldatasize\n      dup4\n      calldatacopy\n      dup1\n      dup3\n      add\n      swap2\n      pop\n      pop\n      swap1\n      pop\n      pop\n      swap1\n      jump\t// out\n\n    auxdata: 0xa264697066735822122003a17752bf3c50053aa546464e712f9ef7bd805117dfa62deb07629d83b4356064736f6c63430007060033\n}\n",
				"bytecode": {
					"linkReferences": {},
					"object": "60a0604052604051806040016040528034815260200142815250600d60008201518160000155602082015181600101555050604051806040016040528034815260200142815250600f600082015181600001556020820151816001015550506000601160006101000a81548160ff0219169083600281111561007d57fe5b021790555034801561008e57600080fd5b50604051610490380380610490833981810160405260208110156100b157600080fd5b81019080805190602001909291905050508060808181525050506080516103b06100e0600039506103b06000f3fe608060405234801561001057600080fd5b506004361061004c5760003560e01c8063421b2d8b146100515780639b64ed5f14610095578063c59083f5146100c6578063d39fa233146100d0575b600080fd5b6100936004803603602081101561006757600080fd5b81019080803573ffffffffffffffffffffffffffffffffffffffff169060200190929190505050610112565b005b6100c4600480360360208110156100ab57600080fd5b81019080803560ff16906020019092919050505061022e565b005b6100ce61025d565b005b6100fc600480360360208110156100e657600080fd5b8101908080359060200190929190505050610333565b6040518082815260200191505060405180910390f35b600a600b60009054906101000a900460ff1660ff161061019a576040517f08c379a00000000000000000000000000000000000000000000000000000000081526004018080602001828103825260208152602001807f6e756d626572206f66207573657273206973206c696d6974656420746f20313081525060200191505060405180910390fd5b806001600b60009054906101000a900460ff1660ff16600a81106101ba57fe5b0160006101000a81548173ffffffffffffffffffffffffffffffffffffffff021916908373ffffffffffffffffffffffffffffffffffffffff160217905550600b600081819054906101000a900460ff168092919060010191906101000a81548160ff021916908360ff1602179055505050565b600081908060018154018082558091505060019003906000526020600020016000909160ff1690919091505550565b610265610357565b60018160006014811061027457fe5b60200201818152505060028160016014811061028c57fe5b60200201818152505060006014905060008167ffffffffffffffff811180156102b457600080fd5b506040519080825280602002602001820160405280156102e35781602001602082028036833780820191505090505b50905033816000815181106102f457fe5b602002602001019073ffffffffffffffffffffffffffffffffffffffff16908173ffffffffffffffffffffffffffffffffffffffff1681525050505050565b6000818154811061034357600080fd5b906000526020600020016000915090505481565b60405180610280016040528060149060208202803683378082019150509050509056fea264697066735822122003a17752bf3c50053aa546464e712f9ef7bd805117dfa62deb07629d83b4356064736f6c63430007060033",
					"opcodes": "PUSH1 0xA0 PUSH1 0x40 MSTORE PUSH1 0x40 MLOAD DUP1 PUSH1 0x40 ADD PUSH1 0x40 MSTORE DUP1 CALLVALUE DUP2 MSTORE PUSH1 0x20 ADD TIMESTAMP DUP2 MSTORE POP PUSH1 0xD PUSH1 0x0 DUP3 ADD MLOAD DUP2 PUSH1 0x0 ADD SSTORE PUSH1 0x20 DUP3 ADD MLOAD DUP2 PUSH1 0x1 ADD SSTORE POP POP PUSH1 0x40 MLOAD DUP1 PUSH1 0x40 ADD PUSH1 0x40 MSTORE DUP1 CALLVALUE DUP2 MSTORE PUSH1 0x20 ADD TIMESTAMP DUP2 MSTORE POP PUSH1 0xF PUSH1 0x0 DUP3 ADD MLOAD DUP2 PUSH1 0x0 ADD SSTORE PUSH1 0x20 DUP3 ADD MLOAD DUP2 PUSH1 0x1 ADD SSTORE POP POP PUSH1 0x0 PUSH1 0x11 PUSH1 0x0 PUSH2 0x100 EXP DUP2 SLOAD DUP2 PUSH1 0xFF MUL NOT AND SWAP1 DUP4 PUSH1 0x2 DUP2 GT ISZERO PUSH2 0x7D JUMPI INVALID JUMPDEST MUL OR SWAP1 SSTORE POP CALLVALUE DUP1 ISZERO PUSH2 0x8E JUMPI PUSH1 0x0 DUP1 REVERT JUMPDEST POP PUSH1 0x40 MLOAD PUSH2 0x490 CODESIZE SUB DUP1 PUSH2 0x490 DUP4 CODECOPY DUP2 DUP2 ADD PUSH1 0x40 MSTORE PUSH1 0x20 DUP2 LT ISZERO PUSH2 0xB1 JUMPI PUSH1 0x0 DUP1 REVERT JUMPDEST DUP2 ADD SWAP1 DUP1 DUP1 MLOAD SWAP1 PUSH1 0x20 ADD SWAP1 SWAP3 SWAP2 SWAP1 POP POP POP DUP1 PUSH1 0x80 DUP2 DUP2 MSTORE POP POP POP PUSH1 0x80 MLOAD PUSH2 0x3B0 PUSH2 0xE0 PUSH1 0x0 CODECOPY POP PUSH2 0x3B0 PUSH1 0x0 RETURN INVALID PUSH1 0x80 PUSH1 0x40 MSTORE CALLVALUE DUP1 ISZERO PUSH2 0x10 JUMPI PUSH1 0x0 DUP1 REVERT JUMPDEST POP PUSH1 0x4 CALLDATASIZE LT PUSH2 0x4C JUMPI PUSH1 0x0 CALLDATALOAD PUSH1 0xE0 SHR DUP1 PUSH4 0x421B2D8B EQ PUSH2 0x51 JUMPI DUP1 PUSH4 0x9B64ED5F EQ PUSH2 0x95 JUMPI DUP1 PUSH4 0xC59083F5 EQ PUSH2 0xC6 JUMPI DUP1 PUSH4 0xD39FA233 EQ PUSH2 0xD0 JUMPI JUMPDEST PUSH1 0x0 DUP1 REVERT JUMPDEST PUSH2 0x93 PUSH1 0x4 DUP1 CALLDATASIZE SUB PUSH1 0x20 DUP2 LT ISZERO PUSH2 0x67 JUMPI PUSH1 0x0 DUP1 REVERT JUMPDEST DUP2 ADD SWAP1 DUP1 DUP1 CALLDATALOAD PUSH20 0xFFFFFFFFFFFFFFFFFFFFFFFFFFFFFFFFFFFFFFFF AND SWAP1 PUSH1 0x20 ADD SWAP1 SWAP3 SWAP2 SWAP1 POP POP POP PUSH2 0x112 JUMP JUMPDEST STOP JUMPDEST PUSH2 0xC4 PUSH1 0x4 DUP1 CALLDATASIZE SUB PUSH1 0x20 DUP2 LT ISZERO PUSH2 0xAB JUMPI PUSH1 0x0 DUP1 REVERT JUMPDEST DUP2 ADD SWAP1 DUP1 DUP1 CALLDATALOAD PUSH1 0xFF AND SWAP1 PUSH1 0x20 ADD SWAP1 SWAP3 SWAP2 SWAP1 POP POP POP PUSH2 0x22E JUMP JUMPDEST STOP JUMPDEST PUSH2 0xCE PUSH2 0x25D JUMP JUMPDEST STOP JUMPDEST PUSH2 0xFC PUSH1 0x4 DUP1 CALLDATASIZE SUB PUSH1 0x20 DUP2 LT ISZERO PUSH2 0xE6 JUMPI PUSH1 0x0 DUP1 REVERT JUMPDEST DUP2 ADD SWAP1 DUP1 DUP1 CALLDATALOAD SWAP1 PUSH1 0x20 ADD SWAP1 SWAP3 SWAP2 SWAP1 POP POP POP PUSH2 0x333 JUMP JUMPDEST PUSH1 0x40 MLOAD DUP1 DUP3 DUP2 MSTORE PUSH1 0x20 ADD SWAP2 POP POP PUSH1 0x40 MLOAD DUP1 SWAP2 SUB SWAP1 RETURN JUMPDEST PUSH1 0xA PUSH1 0xB PUSH1 0x0 SWAP1 SLOAD SWAP1 PUSH2 0x100 EXP SWAP1 DIV PUSH1 0xFF AND PUSH1 0xFF AND LT PUSH2 0x19A JUMPI PUSH1 0x40 MLOAD PUSH32 0x8C379A000000000000000000000000000000000000000000000000000000000 DUP2 MSTORE PUSH1 0x4 ADD DUP1 DUP1 PUSH1 0x20 ADD DUP3 DUP2 SUB DUP3 MSTORE PUSH1 0x20 DUP2 MSTORE PUSH1 0x20 ADD DUP1 PUSH32 0x6E756D626572206F66207573657273206973206C696D6974656420746F203130 DUP2 MSTORE POP PUSH1 0x20 ADD SWAP2 POP POP PUSH1 0x40 MLOAD DUP1 SWAP2 SUB SWAP1 REVERT JUMPDEST DUP1 PUSH1 0x1 PUSH1 0xB PUSH1 0x0 SWAP1 SLOAD SWAP1 PUSH2 0x100 EXP SWAP1 DIV PUSH1 0xFF AND PUSH1 0xFF AND PUSH1 0xA DUP2 LT PUSH2 0x1BA JUMPI INVALID JUMPDEST ADD PUSH1 0x0 PUSH2 0x100 EXP DUP2 SLOAD DUP2 PUSH20 0xFFFFFFFFFFFFFFFFFFFFFFFFFFFFFFFFFFFFFFFF MUL NOT AND SWAP1 DUP4 PUSH20 0xFFFFFFFFFFFFFFFFFFFFFFFFFFFFFFFFFFFFFFFF AND MUL OR SWAP1 SSTORE POP PUSH1 0xB PUSH1 0x0 DUP2 DUP2 SWAP1 SLOAD SWAP1 PUSH2 0x100 EXP SWAP1 DIV PUSH1 0xFF AND DUP1 SWAP3 SWAP2 SWAP1 PUSH1 0x1 ADD SWAP2 SWAP1 PUSH2 0x100 EXP DUP2 SLOAD DUP2 PUSH1 0xFF MUL NOT AND SWAP1 DUP4 PUSH1 0xFF AND MUL OR SWAP1 SSTORE POP POP POP JUMP JUMPDEST PUSH1 0x0 DUP2 SWAP1 DUP1 PUSH1 0x1 DUP2 SLOAD ADD DUP1 DUP3 SSTORE DUP1 SWAP2 POP POP PUSH1 0x1 SWAP1 SUB SWAP1 PUSH1 0x0 MSTORE PUSH1 0x20 PUSH1 0x0 KECCAK256 ADD PUSH1 0x0 SWAP1 SWAP2 PUSH1 0xFF AND SWAP1 SWAP2 SWAP1 SWAP2 POP SSTORE POP JUMP JUMPDEST PUSH2 0x265 PUSH2 0x357 JUMP JUMPDEST PUSH1 0x1 DUP2 PUSH1 0x0 PUSH1 0x14 DUP2 LT PUSH2 0x274 JUMPI INVALID JUMPDEST PUSH1 0x20 MUL ADD DUP2 DUP2 MSTORE POP POP PUSH1 0x2 DUP2 PUSH1 0x1 PUSH1 0x14 DUP2 LT PUSH2 0x28C JUMPI INVALID JUMPDEST PUSH1 0x20 MUL ADD DUP2 DUP2 MSTORE POP POP PUSH1 0x0 PUSH1 0x14 SWAP1 POP PUSH1 0x0 DUP2 PUSH8 0xFFFFFFFFFFFFFFFF DUP2 GT DUP1 ISZERO PUSH2 0x2B4 JUMPI PUSH1 0x0 DUP1 REVERT JUMPDEST POP PUSH1 0x40 MLOAD SWAP1 DUP1 DUP3 MSTORE DUP1 PUSH1 0x20 MUL PUSH1 0x20 ADD DUP3 ADD PUSH1 0x40 MSTORE DUP1 ISZERO PUSH2 0x2E3 JUMPI DUP2 PUSH1 0x20 ADD PUSH1 0x20 DUP3 MUL DUP1 CALLDATASIZE DUP4 CALLDATACOPY DUP1 DUP3 ADD SWAP2 POP POP SWAP1 POP JUMPDEST POP SWAP1 POP CALLER DUP2 PUSH1 0x0 DUP2 MLOAD DUP2 LT PUSH2 0x2F4 JUMPI INVALID JUMPDEST PUSH1 0x20 MUL PUSH1 0x20 ADD ADD SWAP1 PUSH20 0xFFFFFFFFFFFFFFFFFFFFFFFFFFFFFFFFFFFFFFFF AND SWAP1 DUP2 PUSH20 0xFFFFFFFFFFFFFFFFFFFFFFFFFFFFFFFFFFFFFFFF AND DUP2 MSTORE POP POP POP POP POP JUMP JUMPDEST PUSH1 0x0 DUP2 DUP2 SLOAD DUP2 LT PUSH2 0x343 JUMPI PUSH1 0x0 DUP1 REVERT JUMPDEST SWAP1 PUSH1 0x0 MSTORE PUSH1 0x20 PUSH1 0x0 KECCAK256 ADD PUSH1 0x0 SWAP2 POP SWAP1 POP SLOAD DUP2 JUMP JUMPDEST PUSH1 0x40 MLOAD DUP1 PUSH2 0x280 ADD PUSH1 0x40 MSTORE DUP1 PUSH1 0x14 SWAP1 PUSH1 0x20 DUP3 MUL DUP1 CALLDATASIZE DUP4 CALLDATACOPY DUP1 DUP3 ADD SWAP2 POP POP SWAP1 POP POP SWAP1 JUMP INVALID LOG2 PUSH5 0x6970667358 0x22 SLT KECCAK256 SUB LOG1 PUSH24 0x52BF3C50053AA546464E712F9EF7BD805117DFA62DEB0762 SWAP14 DUP4 0xB4 CALLDATALOAD PUSH1 0x64 PUSH20 0x6F6C634300070600330000000000000000000000 "
				},
				"gasEstimates": {
					"creation": {
						"codeDepositCost": "188800",
						"executionCost": "infinite",
						"totalCost": "infinite"
					},
					"external": {
						"addNumber(uint8)": "41163",
						"addUser(address)": "44544",
						"createMemoryArray()": "infinite",
						"numbers(uint256)": "2024"
					}
				},
				"methodIdentifiers": {
					"addNumber(uint8)": "9b64ed5f",
					"addUser(address)": "421b2d8b",
					"createMemoryArray()": "c59083f5",
					"numbers(uint256)": "d39fa233"
				}
			},
			"storageLayout": {
				"storage": [
					{
						"astId": 4,
						"contract": "RefTest.sol:ArrayTest",
						"label": "numbers",
						"offset": 0,
						"slot": "0",
						"type": "t_array(t_uint256)dyn_storage"
					},
					{
						"astId": 8,
						"contract": "RefTest.sol:ArrayTest",
						"label": "users",
						"offset": 0,
						"slot": "1",
						"type": "t_array(t_address)10_storage"
					},
					{
						"astId": 10,
						"contract": "RefTest.sol:ArrayTest",
						"label": "users_count",
						"offset": 0,
						"slot": "11",
						"type": "t_uint8"
					},
					{
						"astId": 14,
						"contract": "RefTest.sol:ArrayTest",
						"label": "numberMap",
						"offset": 0,
						"slot": "12",
						"type": "t_mapping(t_int256,t_int256)"
					},
					{
						"astId": 107,
						"contract": "RefTest.sol:ArrayTest",
						"label": "donation1",
						"offset": 0,
						"slot": "13",
						"type": "t_struct(Donation)99_storage"
					},
					{
						"astId": 115,
						"contract": "RefTest.sol:ArrayTest",
						"label": "donation",
						"offset": 0,
						"slot": "15",
						"type": "t_struct(Donation)99_storage"
					},
					{
						"astId": 123,
						"contract": "RefTest.sol:ArrayTest",
						"label": "defaultColor",
						"offset": 0,
						"slot": "17",
						"type": "t_enum(Color)119"
					}
				],
				"types": {
					"t_address": {
						"encoding": "inplace",
						"label": "address",
						"numberOfBytes": "20"
					},
					"t_array(t_address)10_storage": {
						"base": "t_address",
						"encoding": "inplace",
						"label": "address[10]",
						"numberOfBytes": "320"
					},
					"t_array(t_uint256)dyn_storage": {
						"base": "t_uint256",
						"encoding": "dynamic_array",
						"label": "uint256[]",
						"numberOfBytes": "32"
					},
					"t_enum(Color)119": {
						"encoding": "inplace",
						"label": "enum ArrayTest.Color",
						"numberOfBytes": "1"
					},
					"t_int256": {
						"encoding": "inplace",
						"label": "int256",
						"numberOfBytes": "32"
					},
					"t_mapping(t_int256,t_int256)": {
						"encoding": "mapping",
						"key": "t_int256",
						"label": "mapping(int256 => int256)",
						"numberOfBytes": "32",
						"value": "t_int256"
					},
					"t_struct(Donation)99_storage": {
						"encoding": "inplace",
						"label": "struct ArrayTest.Donation",
						"members": [
							{
								"astId": 96,
								"contract": "RefTest.sol:ArrayTest",
								"label": "value",
								"offset": 0,
								"slot": "0",
								"type": "t_uint256"
							},
							{
								"astId": 98,
								"contract": "RefTest.sol:ArrayTest",
								"label": "date",
								"offset": 0,
								"slot": "1",
								"type": "t_uint256"
							}
						],
						"numberOfBytes": "64"
					},
					"t_uint256": {
						"encoding": "inplace",
						"label": "uint256",
						"numberOfBytes": "32"
					},
					"t_uint8": {
						"encoding": "inplace",
						"label": "uint8",
						"numberOfBytes": "1"
					}
				}
			},
			"userdoc": {
				"kind": "user",
				"methods": {},
				"version": 1
			}
		}
	}
}