{
	"CRUDTest.sol": {
		"CRUDTest": {
			"abi": [
				{
					"inputs": [
						{
							"internalType": "string",
							"name": "name",
							"type": "string"
						}
					],
					"name": "add",
					"outputs": [],
					"stateMutability": "nonpayable",
					"type": "function"
				},
				{
					"inputs": [
						{
							"internalType": "uint256",
							"name": "id",
							"type": "uint256"
						}
					],
					"name": "destory",
					"outputs": [],
					"stateMutability": "nonpayable",
					"type": "function"
				},
				{
					"inputs": [],
					"name": "nextId",
					"outputs": [
						{
							"internalType": "uint256",
							"name": "",
							"type": "uint256"
						}
					],
					"stateMutability": "view",
					"type": "function"
				},
				{
					"inputs": [
						{
							"internalType": "uint256",
							"name": "id",
							"type": "uint256"
						}
					],
					"name": "read",
					"outputs": [
						{
							"internalType": "string",
							"name": "",
							"type": "string"
						}
					],
					"stateMutability": "view",
					"type": "function"
				},
				{
					"inputs": [
						{
							"internalType": "uint256",
							"name": "id",
							"type": "uint256"
						},
						{
							"internalType": "string",
							"name": "name",
							"type": "string"
						}
					],
					"name": "update",
					"outputs": [],
					"stateMutability": "nonpayable",
					"type": "function"
				},
				{
					"inputs": [
						{
							"internalType": "uint256",
							"name": "",
							"type": "uint256"
						}
					],
					"name": "users",
					"outputs": [
						{
							"internalType": "uint256",
							"name": "id",
							"type": "uint256"
						},
						{
							"internalType": "string",
							"name": "name",
							"type": "string"
						}
					],
					"stateMutability": "view",
					"type": "function"
				}
			],
			"devdoc": {
				"kind": "dev",
				"methods": {},
				"version": 1
			},
			"evm": {
				"assembly": "    /* \"CRUDTest.sol\":60:1243  contract CRUDTest {\r... */\n  mstore(0x40, 0x80)\n  callvalue\n  dup1\n  iszero\n  tag_1\n  jumpi\n  0x00\n  dup1\n  revert\ntag_1:\n  pop\n  dataSize(sub_0)\n  dup1\n  dataOffset(sub_0)\n  0x00\n  codecopy\n  0x00\n  return\nstop\n\nsub_0: assembly {\n        /* \"CRUDTest.sol\":60:1243  contract CRUDTest {\r... */\n      mstore(0x40, 0x80)\n      callvalue\n      dup1\n      iszero\n      tag_1\n      jumpi\n      0x00\n      dup1\n      revert\n    tag_1:\n      pop\n      jumpi(tag_2, lt(calldatasize, 0x04))\n      shr(0xe0, calldataload(0x00))\n      dup1\n      0x365b98b2\n      eq\n      tag_3\n      jumpi\n      dup1\n      0x61b8ce8c\n      eq\n      tag_4\n      jumpi\n      dup1\n      0x908e049b\n      eq\n      tag_5\n      jumpi\n      dup1\n      0xb0c8f9dc\n      eq\n      tag_6\n      jumpi\n      dup1\n      0xed2e5a97\n      eq\n      tag_7\n      jumpi\n      dup1\n      0xf745630f\n      eq\n      tag_8\n      jumpi\n    tag_2:\n      0x00\n      dup1\n      revert\n        /* \"CRUDTest.sol\":152:171  User[] public users */\n    tag_3:\n      tag_9\n      0x04\n      dup1\n      calldatasize\n      sub\n      0x20\n      dup2\n      lt\n      iszero\n      tag_10\n      jumpi\n      0x00\n      dup1\n      revert\n    tag_10:\n      dup2\n      add\n      swap1\n      dup1\n      dup1\n      calldataload\n      swap1\n      0x20\n      add\n      swap1\n      swap3\n      swap2\n      swap1\n      pop\n      pop\n      pop\n      tag_11\n      jump\t// in\n    tag_9:\n      mload(0x40)\n      dup1\n      dup4\n      dup2\n      mstore\n      0x20\n      add\n      dup1\n      0x20\n      add\n      dup3\n      dup2\n      sub\n      dup3\n      mstore\n      dup4\n      dup2\n      dup2\n      mload\n      dup2\n      mstore\n      0x20\n      add\n      swap2\n      pop\n      dup1\n      mload\n      swap1\n      0x20\n      add\n      swap1\n      dup1\n      dup4\n      dup4\n      0x00\n    tag_12:\n      dup4\n      dup2\n      lt\n      iszero\n      tag_14\n      jumpi\n      dup1\n      dup3\n      add\n      mload\n      dup2\n      dup5\n      add\n      mstore\n      0x20\n      dup2\n      add\n      swap1\n      pop\n      jump(tag_12)\n    tag_14:\n      pop\n      pop\n      pop\n      pop\n      swap1\n      pop\n      swap1\n      dup2\n      add\n      swap1\n      0x1f\n      and\n      dup1\n      iszero\n      tag_15\n      jumpi\n      dup1\n      dup3\n      sub\n      dup1\n      mload\n      0x01\n      dup4\n      0x20\n      sub\n      0x0100\n      exp\n      sub\n      not\n      and\n      dup2\n      mstore\n      0x20\n      add\n      swap2\n      pop\n    tag_15:\n      pop\n      swap4\n      pop\n      pop\n      pop\n      pop\n      mload(0x40)\n      dup1\n      swap2\n      sub\n      swap1\n      return\n        /* \"CRUDTest.sol\":178:196  uint public nextId */\n    tag_4:\n      tag_16\n      tag_17\n      jump\t// in\n    tag_16:\n      mload(0x40)\n      dup1\n      dup3\n      dup2\n      mstore\n      0x20\n      add\n      swap2\n      pop\n      pop\n      mload(0x40)\n      dup1\n      swap2\n      sub\n      swap1\n      return\n        /* \"CRUDTest.sol\":875:982  function destory(uint id) public {\r... */\n    tag_5:\n      tag_18\n      0x04\n      dup1\n      calldatasize\n      sub\n      0x20\n      dup2\n      lt\n      iszero\n      tag_19\n      jumpi\n      0x00\n      dup1\n      revert\n    tag_19:\n      dup2\n      add\n      swap1\n      dup1\n      dup1\n      calldataload\n      swap1\n      0x20\n      add\n      swap1\n      swap3\n      swap2\n      swap1\n      pop\n      pop\n      pop\n      tag_20\n      jump\t// in\n    tag_18:\n      stop\n        /* \"CRUDTest.sol\":224:502  function add(string memory name) public {\r... */\n    tag_6:\n      tag_21\n      0x04\n      dup1\n      calldatasize\n      sub\n      0x20\n      dup2\n      lt\n      iszero\n      tag_22\n      jumpi\n      0x00\n      dup1\n      revert\n    tag_22:\n      dup2\n      add\n      swap1\n      dup1\n      dup1\n      calldataload\n      swap1\n      0x20\n      add\n      swap1\n      0x0100000000\n      dup2\n      gt\n      iszero\n      tag_23\n      jumpi\n      0x00\n      dup1\n      revert\n    tag_23:\n      dup3\n      add\n      dup4\n      0x20\n      dup3\n      add\n      gt\n      iszero\n      tag_24\n      jumpi\n      0x00\n      dup1\n      revert\n    tag_24:\n      dup1\n      calldataload\n      swap1\n      0x20\n      add\n      swap2\n      dup5\n      0x01\n      dup4\n      mul\n      dup5\n      add\n      gt\n      0x0100000000\n      dup4\n      gt\n      or\n      iszero\n      tag_25\n      jumpi\n      0x00\n      dup1\n      revert\n    tag_25:\n      swap2\n      swap1\n      dup1\n      dup1\n      0x1f\n      add\n      0x20\n      dup1\n      swap2\n      div\n      mul\n      0x20\n      add\n      mload(0x40)\n      swap1\n      dup2\n      add\n      0x40\n      mstore\n      dup1\n      swap4\n      swap3\n      swap2\n      swap1\n      dup2\n      dup2\n      mstore\n      0x20\n      add\n      dup4\n      dup4\n      dup1\n      dup3\n      dup5\n      calldatacopy\n      0x00\n      dup2\n      dup5\n      add\n      mstore\n      not(0x1f)\n      0x1f\n      dup3\n      add\n      and\n      swap1\n      pop\n      dup1\n      dup4\n      add\n      swap3\n      pop\n      pop\n      pop\n      pop\n      pop\n      pop\n      pop\n      swap2\n      swap3\n      swap2\n      swap3\n      swap1\n      pop\n      pop\n      pop\n      tag_26\n      jump\t// in\n    tag_21:\n      stop\n        /* \"CRUDTest.sol\":537:674  function read(uint id) public view returns(string memory) {\r... */\n    tag_7:\n      tag_27\n      0x04\n      dup1\n      calldatasize\n      sub\n      0x20\n      dup2\n      lt\n      iszero\n      tag_28\n      jumpi\n      0x00\n      dup1\n      revert\n    tag_28:\n      dup2\n      add\n      swap1\n      dup1\n      dup1\n      calldataload\n      swap1\n      0x20\n      add\n      swap1\n      swap3\n      swap2\n      swap1\n      pop\n      pop\n      pop\n      tag_29\n      jump\t// in\n    tag_27:\n      mload(0x40)\n      dup1\n      dup1\n      0x20\n      add\n      dup3\n      dup2\n      sub\n      dup3\n      mstore\n      dup4\n      dup2\n      dup2\n      mload\n      dup2\n      mstore\n      0x20\n      add\n      swap2\n      pop\n      dup1\n      mload\n      swap1\n      0x20\n      add\n      swap1\n      dup1\n      dup4\n      dup4\n      0x00\n    tag_30:\n      dup4\n      dup2\n      lt\n      iszero\n      tag_32\n      jumpi\n      dup1\n      dup3\n      add\n      mload\n      dup2\n      dup5\n      add\n      mstore\n      0x20\n      dup2\n      add\n      swap1\n      pop\n      jump(tag_30)\n    tag_32:\n      pop\n      pop\n      pop\n      pop\n      swap1\n      pop\n      swap1\n      dup2\n      add\n      swap1\n      0x1f\n      and\n      dup1\n      iszero\n      tag_33\n      jumpi\n      dup1\n      dup3\n      sub\n      dup1\n      mload\n      0x01\n      dup4\n      0x20\n      sub\n      0x0100\n      exp\n      sub\n      not\n      and\n      dup2\n      mstore\n      0x20\n      add\n      swap2\n      pop\n    tag_33:\n      pop\n      swap3\n      pop\n      pop\n      pop\n      mload(0x40)\n      dup1\n      swap2\n      sub\n      swap1\n      return\n        /* \"CRUDTest.sol\":709:840  function update(uint id, string memory name) public {\r... */\n    tag_8:\n      tag_34\n      0x04\n      dup1\n      calldatasize\n      sub\n      0x40\n      dup2\n      lt\n      iszero\n      tag_35\n      jumpi\n      0x00\n      dup1\n      revert\n    tag_35:\n      dup2\n      add\n      swap1\n      dup1\n      dup1\n      calldataload\n      swap1\n      0x20\n      add\n      swap1\n      swap3\n      swap2\n      swap1\n      dup1\n      calldataload\n      swap1\n      0x20\n      add\n      swap1\n      0x0100000000\n      dup2\n      gt\n      iszero\n      tag_36\n      jumpi\n      0x00\n      dup1\n      revert\n    tag_36:\n      dup3\n      add\n      dup4\n      0x20\n      dup3\n      add\n      gt\n      iszero\n      tag_37\n      jumpi\n      0x00\n      dup1\n      revert\n    tag_37:\n      dup1\n      calldataload\n      swap1\n      0x20\n      add\n      swap2\n      dup5\n      0x01\n      dup4\n      mul\n      dup5\n      add\n      gt\n      0x0100000000\n      dup4\n      gt\n      or\n      iszero\n      tag_38\n      jumpi\n      0x00\n      dup1\n      revert\n    tag_38:\n      swap2\n      swap1\n      dup1\n      dup1\n      0x1f\n      add\n      0x20\n      dup1\n      swap2\n      div\n      mul\n      0x20\n      add\n      mload(0x40)\n      swap1\n      dup2\n      add\n      0x40\n      mstore\n      dup1\n      swap4\n      swap3\n      swap2\n      swap1\n      dup2\n      dup2\n      mstore\n      0x20\n      add\n      dup4\n      dup4\n      dup1\n      dup3\n      dup5\n      calldatacopy\n      0x00\n      dup2\n      dup5\n      add\n      mstore\n      not(0x1f)\n      0x1f\n      dup3\n      add\n      and\n      swap1\n      pop\n      dup1\n      dup4\n      add\n      swap3\n      pop\n      pop\n      pop\n      pop\n      pop\n      pop\n      pop\n      swap2\n      swap3\n      swap2\n      swap3\n      swap1\n      pop\n      pop\n      pop\n      tag_39\n      jump\t// in\n    tag_34:\n      stop\n        /* \"CRUDTest.sol\":152:171  User[] public users */\n    tag_11:\n      0x00\n      dup2\n      dup2\n      sload\n      dup2\n      lt\n      tag_40\n      jumpi\n      0x00\n      dup1\n      revert\n    tag_40:\n      swap1\n      0x00\n      mstore\n      keccak256(0x00, 0x20)\n      swap1\n      0x02\n      mul\n      add\n      0x00\n      swap2\n      pop\n      swap1\n      pop\n      dup1\n      0x00\n      add\n      sload\n      swap1\n      dup1\n      0x01\n      add\n      dup1\n      sload\n      0x01\n      dup2\n      0x01\n      and\n      iszero\n      0x0100\n      mul\n      sub\n      and\n      0x02\n      swap1\n      div\n      dup1\n      0x1f\n      add\n      0x20\n      dup1\n      swap2\n      div\n      mul\n      0x20\n      add\n      mload(0x40)\n      swap1\n      dup2\n      add\n      0x40\n      mstore\n      dup1\n      swap3\n      swap2\n      swap1\n      dup2\n      dup2\n      mstore\n      0x20\n      add\n      dup3\n      dup1\n      sload\n      0x01\n      dup2\n      0x01\n      and\n      iszero\n      0x0100\n      mul\n      sub\n      and\n      0x02\n      swap1\n      div\n      dup1\n      iszero\n      tag_42\n      jumpi\n      dup1\n      0x1f\n      lt\n      tag_43\n      jumpi\n      0x0100\n      dup1\n      dup4\n      sload\n      div\n      mul\n      dup4\n      mstore\n      swap2\n      0x20\n      add\n      swap2\n      jump(tag_42)\n    tag_43:\n      dup3\n      add\n      swap2\n      swap1\n      0x00\n      mstore\n      keccak256(0x00, 0x20)\n      swap1\n    tag_44:\n      dup2\n      sload\n      dup2\n      mstore\n      swap1\n      0x01\n      add\n      swap1\n      0x20\n      add\n      dup1\n      dup4\n      gt\n      tag_44\n      jumpi\n      dup3\n      swap1\n      sub\n      0x1f\n      and\n      dup3\n      add\n      swap2\n    tag_42:\n      pop\n      pop\n      pop\n      pop\n      pop\n      swap1\n      pop\n      dup3\n      jump\t// out\n        /* \"CRUDTest.sol\":178:196  uint public nextId */\n    tag_17:\n      sload(0x01)\n      dup2\n      jump\t// out\n        /* \"CRUDTest.sol\":875:982  function destory(uint id) public {\r... */\n    tag_20:\n        /* \"CRUDTest.sol\":919:925  uint i */\n      0x00\n        /* \"CRUDTest.sol\":928:948  getUserIndexById(id) */\n      tag_46\n        /* \"CRUDTest.sol\":945:947  id */\n      dup3\n        /* \"CRUDTest.sol\":928:944  getUserIndexById */\n      tag_47\n        /* \"CRUDTest.sol\":928:948  getUserIndexById(id) */\n      jump\t// in\n    tag_46:\n        /* \"CRUDTest.sol\":919:948  uint i = getUserIndexById(id) */\n      swap1\n      pop\n        /* \"CRUDTest.sol\":966:971  users */\n      0x00\n        /* \"CRUDTest.sol\":972:973  i */\n      dup2\n        /* \"CRUDTest.sol\":966:974  users[i] */\n      dup2\n      sload\n      dup2\n      lt\n      tag_48\n      jumpi\n      invalid\n    tag_48:\n      swap1\n      0x00\n      mstore\n      keccak256(0x00, 0x20)\n      swap1\n      0x02\n      mul\n      add\n      0x00\n        /* \"CRUDTest.sol\":959:974  delete users[i] */\n      dup1\n      dup3\n      add\n      0x00\n      swap1\n      sstore\n      0x01\n      dup3\n      add\n      0x00\n      tag_50\n      swap2\n      swap1\n      tag_51\n      jump\t// in\n    tag_50:\n      pop\n      pop\n        /* \"CRUDTest.sol\":875:982  function destory(uint id) public {\r... */\n      pop\n      pop\n      jump\t// out\n        /* \"CRUDTest.sol\":224:502  function add(string memory name) public {\r... */\n    tag_26:\n        /* \"CRUDTest.sol\":304:320  User memory user */\n      0x00\n        /* \"CRUDTest.sol\":323:390  User({\r... */\n      mload(0x40)\n      dup1\n      0x40\n      add\n      0x40\n      mstore\n      dup1\n        /* \"CRUDTest.sol\":347:353  nextId */\n      sload(0x01)\n        /* \"CRUDTest.sol\":323:390  User({\r... */\n      dup2\n      mstore\n      0x20\n      add\n        /* \"CRUDTest.sol\":374:378  name */\n      dup4\n        /* \"CRUDTest.sol\":323:390  User({\r... */\n      dup2\n      mstore\n      pop\n        /* \"CRUDTest.sol\":304:390  User memory user = User({\r... */\n      swap1\n      pop\n        /* \"CRUDTest.sol\":436:441  users */\n      0x00\n        /* \"CRUDTest.sol\":447:451  user */\n      dup2\n        /* \"CRUDTest.sol\":436:452  users.push(user) */\n      swap1\n      dup1\n      0x01\n      dup2\n      sload\n      add\n      dup1\n      dup3\n      sstore\n      dup1\n      swap2\n      pop\n      pop\n      0x01\n      swap1\n      sub\n      swap1\n      0x00\n      mstore\n      keccak256(0x00, 0x20)\n      swap1\n      0x02\n      mul\n      add\n      0x00\n      swap1\n      swap2\n      swap1\n      swap2\n      swap1\n      swap2\n      pop\n      0x00\n      dup3\n      add\n      mload\n      dup2\n      0x00\n      add\n      sstore\n      0x20\n      dup3\n      add\n      mload\n      dup2\n      0x01\n      add\n      swap1\n      dup1\n      mload\n      swap1\n      0x20\n      add\n      swap1\n      tag_54\n      swap3\n      swap2\n      swap1\n      tag_55\n      jump\t// in\n    tag_54:\n      pop\n      pop\n      pop\n        /* \"CRUDTest.sol\":486:492  nextId */\n      0x01\n      0x00\n        /* \"CRUDTest.sol\":486:494  nextId++ */\n      dup2\n      sload\n      dup1\n      swap3\n      swap2\n      swap1\n      0x01\n      add\n      swap2\n      swap1\n      pop\n      sstore\n      pop\n        /* \"CRUDTest.sol\":224:502  function add(string memory name) public {\r... */\n      pop\n      pop\n      jump\t// out\n        /* \"CRUDTest.sol\":537:674  function read(uint id) public view returns(string memory) {\r... */\n    tag_29:\n        /* \"CRUDTest.sol\":580:593  string memory */\n      0x60\n        /* \"CRUDTest.sol\":606:612  uint i */\n      0x00\n        /* \"CRUDTest.sol\":615:635  getUserIndexById(id) */\n      tag_57\n        /* \"CRUDTest.sol\":632:634  id */\n      dup4\n        /* \"CRUDTest.sol\":615:631  getUserIndexById */\n      tag_47\n        /* \"CRUDTest.sol\":615:635  getUserIndexById(id) */\n      jump\t// in\n    tag_57:\n        /* \"CRUDTest.sol\":606:635  uint i = getUserIndexById(id) */\n      swap1\n      pop\n        /* \"CRUDTest.sol\":653:658  users */\n      0x00\n        /* \"CRUDTest.sol\":659:660  i */\n      dup2\n        /* \"CRUDTest.sol\":653:661  users[i] */\n      dup2\n      sload\n      dup2\n      lt\n      tag_58\n      jumpi\n      invalid\n    tag_58:\n      swap1\n      0x00\n      mstore\n      keccak256(0x00, 0x20)\n      swap1\n      0x02\n      mul\n      add\n        /* \"CRUDTest.sol\":653:666  users[i].name */\n      0x01\n      add\n        /* \"CRUDTest.sol\":646:666  return users[i].name */\n      dup1\n      sload\n      0x01\n      dup2\n      0x01\n      and\n      iszero\n      0x0100\n      mul\n      sub\n      and\n      0x02\n      swap1\n      div\n      dup1\n      0x1f\n      add\n      0x20\n      dup1\n      swap2\n      div\n      mul\n      0x20\n      add\n      mload(0x40)\n      swap1\n      dup2\n      add\n      0x40\n      mstore\n      dup1\n      swap3\n      swap2\n      swap1\n      dup2\n      dup2\n      mstore\n      0x20\n      add\n      dup3\n      dup1\n      sload\n      0x01\n      dup2\n      0x01\n      and\n      iszero\n      0x0100\n      mul\n      sub\n      and\n      0x02\n      swap1\n      div\n      dup1\n      iszero\n      tag_60\n      jumpi\n      dup1\n      0x1f\n      lt\n      tag_61\n      jumpi\n      0x0100\n      dup1\n      dup4\n      sload\n      div\n      mul\n      dup4\n      mstore\n      swap2\n      0x20\n      add\n      swap2\n      jump(tag_60)\n    tag_61:\n      dup3\n      add\n      swap2\n      swap1\n      0x00\n      mstore\n      keccak256(0x00, 0x20)\n      swap1\n    tag_62:\n      dup2\n      sload\n      dup2\n      mstore\n      swap1\n      0x01\n      add\n      swap1\n      0x20\n      add\n      dup1\n      dup4\n      gt\n      tag_62\n      jumpi\n      dup3\n      swap1\n      sub\n      0x1f\n      and\n      dup3\n      add\n      swap2\n    tag_60:\n      pop\n      pop\n      pop\n      pop\n      pop\n      swap2\n      pop\n      pop\n        /* \"CRUDTest.sol\":537:674  function read(uint id) public view returns(string memory) {\r... */\n      swap2\n      swap1\n      pop\n      jump\t// out\n        /* \"CRUDTest.sol\":709:840  function update(uint id, string memory name) public {\r... */\n    tag_39:\n        /* \"CRUDTest.sol\":772:778  uint i */\n      0x00\n        /* \"CRUDTest.sol\":781:801  getUserIndexById(id) */\n      tag_64\n        /* \"CRUDTest.sol\":798:800  id */\n      dup4\n        /* \"CRUDTest.sol\":781:797  getUserIndexById */\n      tag_47\n        /* \"CRUDTest.sol\":781:801  getUserIndexById(id) */\n      jump\t// in\n    tag_64:\n        /* \"CRUDTest.sol\":772:801  uint i = getUserIndexById(id) */\n      swap1\n      pop\n        /* \"CRUDTest.sol\":828:832  name */\n      dup2\n        /* \"CRUDTest.sol\":812:817  users */\n      0x00\n        /* \"CRUDTest.sol\":818:819  i */\n      dup3\n        /* \"CRUDTest.sol\":812:820  users[i] */\n      dup2\n      sload\n      dup2\n      lt\n      tag_65\n      jumpi\n      invalid\n    tag_65:\n      swap1\n      0x00\n      mstore\n      keccak256(0x00, 0x20)\n      swap1\n      0x02\n      mul\n      add\n        /* \"CRUDTest.sol\":812:825  users[i].name */\n      0x01\n      add\n        /* \"CRUDTest.sol\":812:832  users[i].name = name */\n      swap1\n      dup1\n      mload\n      swap1\n      0x20\n      add\n      swap1\n      tag_67\n      swap3\n      swap2\n      swap1\n      tag_55\n      jump\t// in\n    tag_67:\n      pop\n        /* \"CRUDTest.sol\":709:840  function update(uint id, string memory name) public {\r... */\n      pop\n      pop\n      pop\n      jump\t// out\n        /* \"CRUDTest.sol\":990:1240  function getUserIndexById(uint id) private view returns(uint256) {\r... */\n    tag_47:\n        /* \"CRUDTest.sol\":1046:1053  uint256 */\n      0x00\n        /* \"CRUDTest.sol\":1072:1078  uint i */\n      dup1\n        /* \"CRUDTest.sol\":1081:1082  0 */\n      0x00\n        /* \"CRUDTest.sol\":1072:1082  uint i = 0 */\n      swap1\n      pop\n        /* \"CRUDTest.sol\":1067:1198  for (uint i = 0; i < users.length; i++) {\r... */\n    tag_69:\n        /* \"CRUDTest.sol\":1088:1093  users */\n      0x00\n        /* \"CRUDTest.sol\":1088:1100  users.length */\n      dup1\n      sload\n      swap1\n      pop\n        /* \"CRUDTest.sol\":1084:1085  i */\n      dup2\n        /* \"CRUDTest.sol\":1084:1100  i < users.length */\n      lt\n        /* \"CRUDTest.sol\":1067:1198  for (uint i = 0; i < users.length; i++) {\r... */\n      iszero\n      tag_70\n      jumpi\n        /* \"CRUDTest.sol\":1140:1142  id */\n      dup3\n        /* \"CRUDTest.sol\":1125:1130  users */\n      0x00\n        /* \"CRUDTest.sol\":1131:1132  i */\n      dup3\n        /* \"CRUDTest.sol\":1125:1133  users[i] */\n      dup2\n      sload\n      dup2\n      lt\n      tag_72\n      jumpi\n      invalid\n    tag_72:\n      swap1\n      0x00\n      mstore\n      keccak256(0x00, 0x20)\n      swap1\n      0x02\n      mul\n      add\n        /* \"CRUDTest.sol\":1125:1136  users[i].id */\n      0x00\n      add\n      sload\n        /* \"CRUDTest.sol\":1125:1142  users[i].id == id */\n      eq\n        /* \"CRUDTest.sol\":1122:1187  if(users[i].id == id) {\r... */\n      iszero\n      tag_74\n      jumpi\n        /* \"CRUDTest.sol\":1170:1171  i */\n      dup1\n        /* \"CRUDTest.sol\":1163:1171  return i */\n      swap2\n      pop\n      pop\n      jump(tag_68)\n        /* \"CRUDTest.sol\":1122:1187  if(users[i].id == id) {\r... */\n    tag_74:\n        /* \"CRUDTest.sol\":1102:1105  i++ */\n      dup1\n      dup1\n      0x01\n      add\n      swap2\n      pop\n      pop\n        /* \"CRUDTest.sol\":1067:1198  for (uint i = 0; i < users.length; i++) {\r... */\n      jump(tag_69)\n    tag_70:\n      pop\n        /* \"CRUDTest.sol\":1208:1232  revert(\"User not found\") */\n      mload(0x40)\n      0x08c379a000000000000000000000000000000000000000000000000000000000\n      dup2\n      mstore\n      0x04\n      add\n      dup1\n      dup1\n      0x20\n      add\n      dup3\n      dup2\n      sub\n      dup3\n      mstore\n      0x0e\n      dup2\n      mstore\n      0x20\n      add\n      dup1\n      0x55736572206e6f7420666f756e64000000000000000000000000000000000000\n      dup2\n      mstore\n      pop\n      0x20\n      add\n      swap2\n      pop\n      pop\n      mload(0x40)\n      dup1\n      swap2\n      sub\n      swap1\n      revert\n        /* \"CRUDTest.sol\":990:1240  function getUserIndexById(uint id) private view returns(uint256) {\r... */\n    tag_68:\n      swap2\n      swap1\n      pop\n      jump\t// out\n    tag_51:\n      pop\n      dup1\n      sload\n      0x01\n      dup2\n      0x01\n      and\n      iszero\n      0x0100\n      mul\n      sub\n      and\n      0x02\n      swap1\n      div\n      0x00\n      dup3\n      sstore\n      dup1\n      0x1f\n      lt\n      tag_76\n      jumpi\n      pop\n      jump(tag_75)\n    tag_76:\n      0x1f\n      add\n      0x20\n      swap1\n      div\n      swap1\n      0x00\n      mstore\n      keccak256(0x00, 0x20)\n      swap1\n      dup2\n      add\n      swap1\n      tag_77\n      swap2\n      swap1\n      tag_78\n      jump\t// in\n    tag_77:\n    tag_75:\n      pop\n      jump\t// out\n    tag_55:\n      dup3\n      dup1\n      sload\n      0x01\n      dup2\n      0x01\n      and\n      iszero\n      0x0100\n      mul\n      sub\n      and\n      0x02\n      swap1\n      div\n      swap1\n      0x00\n      mstore\n      keccak256(0x00, 0x20)\n      swap1\n      0x1f\n      add\n      0x20\n      swap1\n      div\n      dup2\n      add\n      swap3\n      dup3\n      tag_80\n      jumpi\n      0x00\n      dup6\n      sstore\n      jump(tag_79)\n    tag_80:\n      dup3\n      0x1f\n      lt\n      tag_81\n      jumpi\n      dup1\n      mload\n      not(0xff)\n      and\n      dup4\n      dup1\n      add\n      or\n      dup6\n      sstore\n      jump(tag_79)\n    tag_81:\n      dup3\n      dup1\n      add\n      0x01\n      add\n      dup6\n      sstore\n      dup3\n      iszero\n      tag_79\n      jumpi\n      swap2\n      dup3\n      add\n    tag_82:\n      dup3\n      dup2\n      gt\n      iszero\n      tag_83\n      jumpi\n      dup3\n      mload\n      dup3\n      sstore\n      swap2\n      0x20\n      add\n      swap2\n      swap1\n      0x01\n      add\n      swap1\n      jump(tag_82)\n    tag_83:\n    tag_79:\n      pop\n      swap1\n      pop\n      tag_84\n      swap2\n      swap1\n      tag_78\n      jump\t// in\n    tag_84:\n      pop\n      swap1\n      jump\t// out\n    tag_78:\n    tag_85:\n      dup1\n      dup3\n      gt\n      iszero\n      tag_86\n      jumpi\n      0x00\n      dup2\n      0x00\n      swap1\n      sstore\n      pop\n      0x01\n      add\n      jump(tag_85)\n    tag_86:\n      pop\n      swap1\n      jump\t// out\n\n    auxdata: 0xa2646970667358221220db68794656e9367c8179bd451b561e8724942da0eba45c531f664ecf1e4536ac64736f6c63430007060033\n}\n",
				"bytecode": {
					"linkReferences": {},
					"object": "608060405234801561001057600080fd5b50610828806100206000396000f3fe608060405234801561001057600080fd5b50600436106100625760003560e01c8063365b98b21461006757806361b8ce8c14610115578063908e049b14610133578063b0c8f9dc14610161578063ed2e5a971461021c578063f745630f146102c3575b600080fd5b6100936004803603602081101561007d57600080fd5b8101908080359060200190929190505050610388565b6040518083815260200180602001828103825283818151815260200191508051906020019080838360005b838110156100d95780820151818401526020810190506100be565b50505050905090810190601f1680156101065780820380516001836020036101000a031916815260200191505b50935050505060405180910390f35b61011d610454565b6040518082815260200191505060405180910390f35b61015f6004803603602081101561014957600080fd5b810190808035906020019092919050505061045a565b005b61021a6004803603602081101561017757600080fd5b810190808035906020019064010000000081111561019457600080fd5b8201836020820111156101a657600080fd5b803590602001918460018302840111640100000000831117156101c857600080fd5b91908080601f016020809104026020016040519081016040528093929190818152602001838380828437600081840152601f19601f8201169050808301925050505050505091929192905050506104a1565b005b6102486004803603602081101561023257600080fd5b8101908080359060200190929190505050610527565b6040518080602001828103825283818151815260200191508051906020019080838360005b8381101561028857808201518184015260208101905061026d565b50505050905090810190601f1680156102b55780820380516001836020036101000a031916815260200191505b509250505060405180910390f35b610386600480360360408110156102d957600080fd5b81019080803590602001909291908035906020019064010000000081111561030057600080fd5b82018360208201111561031257600080fd5b8035906020019184600183028401116401000000008311171561033457600080fd5b91908080601f016020809104026020016040519081016040528093929190818152602001838380828437600081840152601f19601f8201169050808301925050505050505091929192905050506105f5565b005b6000818154811061039857600080fd5b9060005260206000209060020201600091509050806000015490806001018054600181600116156101000203166002900480601f01602080910402602001604051908101604052809291908181526020018280546001816001161561010002031660029004801561044a5780601f1061041f5761010080835404028352916020019161044a565b820191906000526020600020905b81548152906001019060200180831161042d57829003601f168201915b5050505050905082565b60015481565b60006104658261063a565b90506000818154811061047457fe5b906000526020600020906002020160008082016000905560018201600061049b91906106ff565b50505050565b600060405180604001604052806001548152602001838152509050600081908060018154018082558091505060019003906000526020600020906002020160009091909190915060008201518160000155602082015181600101908051906020019061050e929190610747565b5050506001600081548092919060010191905055505050565b606060006105348361063a565b90506000818154811061054357fe5b90600052602060002090600202016001018054600181600116156101000203166002900480601f0160208091040260200160405190810160405280929190818152602001828054600181600116156101000203166002900480156105e85780601f106105bd576101008083540402835291602001916105e8565b820191906000526020600020905b8154815290600101906020018083116105cb57829003601f168201915b5050505050915050919050565b60006106008361063a565b9050816000828154811061061057fe5b90600052602060002090600202016001019080519060200190610634929190610747565b50505050565b600080600090505b60008054905081101561068b57826000828154811061065d57fe5b906000526020600020906002020160000154141561067e57809150506106fa565b8080600101915050610642565b506040517f08c379a000000000000000000000000000000000000000000000000000000000815260040180806020018281038252600e8152602001807f55736572206e6f7420666f756e6400000000000000000000000000000000000081525060200191505060405180910390fd5b919050565b50805460018160011615610100020316600290046000825580601f106107255750610744565b601f01602090049060005260206000209081019061074391906107d5565b5b50565b828054600181600116156101000203166002900490600052602060002090601f01602090048101928261077d57600085556107c4565b82601f1061079657805160ff19168380011785556107c4565b828001600101855582156107c4579182015b828111156107c35782518255916020019190600101906107a8565b5b5090506107d191906107d5565b5090565b5b808211156107ee5760008160009055506001016107d6565b509056fea2646970667358221220db68794656e9367c8179bd451b561e8724942da0eba45c531f664ecf1e4536ac64736f6c63430007060033",
					"opcodes": "PUSH1 0x80 PUSH1 0x40 MSTORE CALLVALUE DUP1 ISZERO PUSH2 0x10 JUMPI PUSH1 0x0 DUP1 REVERT JUMPDEST POP PUSH2 0x828 DUP1 PUSH2 0x20 PUSH1 0x0 CODECOPY PUSH1 0x0 RETURN INVALID PUSH1 0x80 PUSH1 0x40 MSTORE CALLVALUE DUP1 ISZERO PUSH2 0x10 JUMPI PUSH1 0x0 DUP1 REVERT JUMPDEST POP PUSH1 0x4 CALLDATASIZE LT PUSH2 0x62 JUMPI PUSH1 0x0 CALLDATALOAD PUSH1 0xE0 SHR DUP1 PUSH4 0x365B98B2 EQ PUSH2 0x67 JUMPI DUP1 PUSH4 0x61B8CE8C EQ PUSH2 0x115 JUMPI DUP1 PUSH4 0x908E049B EQ PUSH2 0x133 JUMPI DUP1 PUSH4 0xB0C8F9DC EQ PUSH2 0x161 JUMPI DUP1 PUSH4 0xED2E5A97 EQ PUSH2 0x21C JUMPI DUP1 PUSH4 0xF745630F EQ PUSH2 0x2C3 JUMPI JUMPDEST PUSH1 0x0 DUP1 REVERT JUMPDEST PUSH2 0x93 PUSH1 0x4 DUP1 CALLDATASIZE SUB PUSH1 0x20 DUP2 LT ISZERO PUSH2 0x7D JUMPI PUSH1 0x0 DUP1 REVERT JUMPDEST DUP2 ADD SWAP1 DUP1 DUP1 CALLDATALOAD SWAP1 PUSH1 0x20 ADD SWAP1 SWAP3 SWAP2 SWAP1 POP POP POP PUSH2 0x388 JUMP JUMPDEST PUSH1 0x40 MLOAD DUP1 DUP4 DUP2 MSTORE PUSH1 0x20 ADD DUP1 PUSH1 0x20 ADD DUP3 DUP2 SUB DUP3 MSTORE DUP4 DUP2 DUP2 MLOAD DUP2 MSTORE PUSH1 0x20 ADD SWAP2 POP DUP1 MLOAD SWAP1 PUSH1 0x20 ADD SWAP1 DUP1 DUP4 DUP4 PUSH1 0x0 JUMPDEST DUP4 DUP2 LT ISZERO PUSH2 0xD9 JUMPI DUP1 DUP3 ADD MLOAD DUP2 DUP5 ADD MSTORE PUSH1 0x20 DUP2 ADD SWAP1 POP PUSH2 0xBE JUMP JUMPDEST POP POP POP POP SWAP1 POP SWAP1 DUP2 ADD SWAP1 PUSH1 0x1F AND DUP1 ISZERO PUSH2 0x106 JUMPI DUP1 DUP3 SUB DUP1 MLOAD PUSH1 0x1 DUP4 PUSH1 0x20 SUB PUSH2 0x100 EXP SUB NOT AND DUP2 MSTORE PUSH1 0x20 ADD SWAP2 POP JUMPDEST POP SWAP4 POP POP POP POP PUSH1 0x40 MLOAD DUP1 SWAP2 SUB SWAP1 RETURN JUMPDEST PUSH2 0x11D PUSH2 0x454 JUMP JUMPDEST PUSH1 0x40 MLOAD DUP1 DUP3 DUP2 MSTORE PUSH1 0x20 ADD SWAP2 POP POP PUSH1 0x40 MLOAD DUP1 SWAP2 SUB SWAP1 RETURN JUMPDEST PUSH2 0x15F PUSH1 0x4 DUP1 CALLDATASIZE SUB PUSH1 0x20 DUP2 LT ISZERO PUSH2 0x149 JUMPI PUSH1 0x0 DUP1 REVERT JUMPDEST DUP2 ADD SWAP1 DUP1 DUP1 CALLDATALOAD SWAP1 PUSH1 0x20 ADD SWAP1 SWAP3 SWAP2 SWAP1 POP POP POP PUSH2 0x45A JUMP JUMPDEST STOP JUMPDEST PUSH2 0x21A PUSH1 0x4 DUP1 CALLDATASIZE SUB PUSH1 0x20 DUP2 LT ISZERO PUSH2 0x177 JUMPI PUSH1 0x0 DUP1 REVERT JUMPDEST DUP2 ADD SWAP1 DUP1 DUP1 CALLDATALOAD SWAP1 PUSH1 0x20 ADD SWAP1 PUSH5 0x100000000 DUP2 GT ISZERO PUSH2 0x194 JUMPI PUSH1 0x0 DUP1 REVERT JUMPDEST DUP3 ADD DUP4 PUSH1 0x20 DUP3 ADD GT ISZERO PUSH2 0x1A6 JUMPI PUSH1 0x0 DUP1 REVERT JUMPDEST DUP1 CALLDATALOAD SWAP1 PUSH1 0x20 ADD SWAP2 DUP5 PUSH1 0x1 DUP4 MUL DUP5 ADD GT PUSH5 0x100000000 DUP4 GT OR ISZERO PUSH2 0x1C8 JUMPI PUSH1 0x0 DUP1 REVERT JUMPDEST SWAP2 SWAP1 DUP1 DUP1 PUSH1 0x1F ADD PUSH1 0x20 DUP1 SWAP2 DIV MUL PUSH1 0x20 ADD PUSH1 0x40 MLOAD SWAP1 DUP2 ADD PUSH1 0x40 MSTORE DUP1 SWAP4 SWAP3 SWAP2 SWAP1 DUP2 DUP2 MSTORE PUSH1 0x20 ADD DUP4 DUP4 DUP1 DUP3 DUP5 CALLDATACOPY PUSH1 0x0 DUP2 DUP5 ADD MSTORE PUSH1 0x1F NOT PUSH1 0x1F DUP3 ADD AND SWAP1 POP DUP1 DUP4 ADD SWAP3 POP POP POP POP POP POP POP SWAP2 SWAP3 SWAP2 SWAP3 SWAP1 POP POP POP PUSH2 0x4A1 JUMP JUMPDEST STOP JUMPDEST PUSH2 0x248 PUSH1 0x4 DUP1 CALLDATASIZE SUB PUSH1 0x20 DUP2 LT ISZERO PUSH2 0x232 JUMPI PUSH1 0x0 DUP1 REVERT JUMPDEST DUP2 ADD SWAP1 DUP1 DUP1 CALLDATALOAD SWAP1 PUSH1 0x20 ADD SWAP1 SWAP3 SWAP2 SWAP1 POP POP POP PUSH2 0x527 JUMP JUMPDEST PUSH1 0x40 MLOAD DUP1 DUP1 PUSH1 0x20 ADD DUP3 DUP2 SUB DUP3 MSTORE DUP4 DUP2 DUP2 MLOAD DUP2 MSTORE PUSH1 0x20 ADD SWAP2 POP DUP1 MLOAD SWAP1 PUSH1 0x20 ADD SWAP1 DUP1 DUP4 DUP4 PUSH1 0x0 JUMPDEST DUP4 DUP2 LT ISZERO PUSH2 0x288 JUMPI DUP1 DUP3 ADD MLOAD DUP2 DUP5 ADD MSTORE PUSH1 0x20 DUP2 ADD SWAP1 POP PUSH2 0x26D JUMP JUMPDEST POP POP POP POP SWAP1 POP SWAP1 DUP2 ADD SWAP1 PUSH1 0x1F AND DUP1 ISZERO PUSH2 0x2B5 JUMPI DUP1 DUP3 SUB DUP1 MLOAD PUSH1 0x1 DUP4 PUSH1 0x20 SUB PUSH2 0x100 EXP SUB NOT AND DUP2 MSTORE PUSH1 0x20 ADD SWAP2 POP JUMPDEST POP SWAP3 POP POP POP PUSH1 0x40 MLOAD DUP1 SWAP2 SUB SWAP1 RETURN JUMPDEST PUSH2 0x386 PUSH1 0x4 DUP1 CALLDATASIZE SUB PUSH1 0x40 DUP2 LT ISZERO PUSH2 0x2D9 JUMPI PUSH1 0x0 DUP1 REVERT JUMPDEST DUP2 ADD SWAP1 DUP1 DUP1 CALLDATALOAD SWAP1 PUSH1 0x20 ADD SWAP1 SWAP3 SWAP2 SWAP1 DUP1 CALLDATALOAD SWAP1 PUSH1 0x20 ADD SWAP1 PUSH5 0x100000000 DUP2 GT ISZERO PUSH2 0x300 JUMPI PUSH1 0x0 DUP1 REVERT JUMPDEST DUP3 ADD DUP4 PUSH1 0x20 DUP3 ADD GT ISZERO PUSH2 0x312 JUMPI PUSH1 0x0 DUP1 REVERT JUMPDEST DUP1 CALLDATALOAD SWAP1 PUSH1 0x20 ADD SWAP2 DUP5 PUSH1 0x1 DUP4 MUL DUP5 ADD GT PUSH5 0x100000000 DUP4 GT OR ISZERO PUSH2 0x334 JUMPI PUSH1 0x0 DUP1 REVERT JUMPDEST SWAP2 SWAP1 DUP1 DUP1 PUSH1 0x1F ADD PUSH1 0x20 DUP1 SWAP2 DIV MUL PUSH1 0x20 ADD PUSH1 0x40 MLOAD SWAP1 DUP2 ADD PUSH1 0x40 MSTORE DUP1 SWAP4 SWAP3 SWAP2 SWAP1 DUP2 DUP2 MSTORE PUSH1 0x20 ADD DUP4 DUP4 DUP1 DUP3 DUP5 CALLDATACOPY PUSH1 0x0 DUP2 DUP5 ADD MSTORE PUSH1 0x1F NOT PUSH1 0x1F DUP3 ADD AND SWAP1 POP DUP1 DUP4 ADD SWAP3 POP POP POP POP POP POP POP SWAP2 SWAP3 SWAP2 SWAP3 SWAP1 POP POP POP PUSH2 0x5F5 JUMP JUMPDEST STOP JUMPDEST PUSH1 0x0 DUP2 DUP2 SLOAD DUP2 LT PUSH2 0x398 JUMPI PUSH1 0x0 DUP1 REVERT JUMPDEST SWAP1 PUSH1 0x0 MSTORE PUSH1 0x20 PUSH1 0x0 KECCAK256 SWAP1 PUSH1 0x2 MUL ADD PUSH1 0x0 SWAP2 POP SWAP1 POP DUP1 PUSH1 0x0 ADD SLOAD SWAP1 DUP1 PUSH1 0x1 ADD DUP1 SLOAD PUSH1 0x1 DUP2 PUSH1 0x1 AND ISZERO PUSH2 0x100 MUL SUB AND PUSH1 0x2 SWAP1 DIV DUP1 PUSH1 0x1F ADD PUSH1 0x20 DUP1 SWAP2 DIV MUL PUSH1 0x20 ADD PUSH1 0x40 MLOAD SWAP1 DUP2 ADD PUSH1 0x40 MSTORE DUP1 SWAP3 SWAP2 SWAP1 DUP2 DUP2 MSTORE PUSH1 0x20 ADD DUP3 DUP1 SLOAD PUSH1 0x1 DUP2 PUSH1 0x1 AND ISZERO PUSH2 0x100 MUL SUB AND PUSH1 0x2 SWAP1 DIV DUP1 ISZERO PUSH2 0x44A JUMPI DUP1 PUSH1 0x1F LT PUSH2 0x41F JUMPI PUSH2 0x100 DUP1 DUP4 SLOAD DIV MUL DUP4 MSTORE SWAP2 PUSH1 0x20 ADD SWAP2 PUSH2 0x44A JUMP JUMPDEST DUP3 ADD SWAP2 SWAP1 PUSH1 0x0 MSTORE PUSH1 0x20 PUSH1 0x0 KECCAK256 SWAP1 JUMPDEST DUP2 SLOAD DUP2 MSTORE SWAP1 PUSH1 0x1 ADD SWAP1 PUSH1 0x20 ADD DUP1 DUP4 GT PUSH2 0x42D JUMPI DUP3 SWAP1 SUB PUSH1 0x1F AND DUP3 ADD SWAP2 JUMPDEST POP POP POP POP POP SWAP1 POP DUP3 JUMP JUMPDEST PUSH1 0x1 SLOAD DUP2 JUMP JUMPDEST PUSH1 0x0 PUSH2 0x465 DUP3 PUSH2 0x63A JUMP JUMPDEST SWAP1 POP PUSH1 0x0 DUP2 DUP2 SLOAD DUP2 LT PUSH2 0x474 JUMPI INVALID JUMPDEST SWAP1 PUSH1 0x0 MSTORE PUSH1 0x20 PUSH1 0x0 KECCAK256 SWAP1 PUSH1 0x2 MUL ADD PUSH1 0x0 DUP1 DUP3 ADD PUSH1 0x0 SWAP1 SSTORE PUSH1 0x1 DUP3 ADD PUSH1 0x0 PUSH2 0x49B SWAP2 SWAP1 PUSH2 0x6FF JUMP JUMPDEST POP POP POP POP JUMP JUMPDEST PUSH1 0x0 PUSH1 0x40 MLOAD DUP1 PUSH1 0x40 ADD PUSH1 0x40 MSTORE DUP1 PUSH1 0x1 SLOAD DUP2 MSTORE PUSH1 0x20 ADD DUP4 DUP2 MSTORE POP SWAP1 POP PUSH1 0x0 DUP2 SWAP1 DUP1 PUSH1 0x1 DUP2 SLOAD ADD DUP1 DUP3 SSTORE DUP1 SWAP2 POP POP PUSH1 0x1 SWAP1 SUB SWAP1 PUSH1 0x0 MSTORE PUSH1 0x20 PUSH1 0x0 KECCAK256 SWAP1 PUSH1 0x2 MUL ADD PUSH1 0x0 SWAP1 SWAP2 SWAP1 SWAP2 SWAP1 SWAP2 POP PUSH1 0x0 DUP3 ADD MLOAD DUP2 PUSH1 0x0 ADD SSTORE PUSH1 0x20 DUP3 ADD MLOAD DUP2 PUSH1 0x1 ADD SWAP1 DUP1 MLOAD SWAP1 PUSH1 0x20 ADD SWAP1 PUSH2 0x50E SWAP3 SWAP2 SWAP1 PUSH2 0x747 JUMP JUMPDEST POP POP POP PUSH1 0x1 PUSH1 0x0 DUP2 SLOAD DUP1 SWAP3 SWAP2 SWAP1 PUSH1 0x1 ADD SWAP2 SWAP1 POP SSTORE POP POP POP JUMP JUMPDEST PUSH1 0x60 PUSH1 0x0 PUSH2 0x534 DUP4 PUSH2 0x63A JUMP JUMPDEST SWAP1 POP PUSH1 0x0 DUP2 DUP2 SLOAD DUP2 LT PUSH2 0x543 JUMPI INVALID JUMPDEST SWAP1 PUSH1 0x0 MSTORE PUSH1 0x20 PUSH1 0x0 KECCAK256 SWAP1 PUSH1 0x2 MUL ADD PUSH1 0x1 ADD DUP1 SLOAD PUSH1 0x1 DUP2 PUSH1 0x1 AND ISZERO PUSH2 0x100 MUL SUB AND PUSH1 0x2 SWAP1 DIV DUP1 PUSH1 0x1F ADD PUSH1 0x20 DUP1 SWAP2 DIV MUL PUSH1 0x20 ADD PUSH1 0x40 MLOAD SWAP1 DUP2 ADD PUSH1 0x40 MSTORE DUP1 SWAP3 SWAP2 SWAP1 DUP2 DUP2 MSTORE PUSH1 0x20 ADD DUP3 DUP1 SLOAD PUSH1 0x1 DUP2 PUSH1 0x1 AND ISZERO PUSH2 0x100 MUL SUB AND PUSH1 0x2 SWAP1 DIV DUP1 ISZERO PUSH2 0x5E8 JUMPI DUP1 PUSH1 0x1F LT PUSH2 0x5BD JUMPI PUSH2 0x100 DUP1 DUP4 SLOAD DIV MUL DUP4 MSTORE SWAP2 PUSH1 0x20 ADD SWAP2 PUSH2 0x5E8 JUMP JUMPDEST DUP3 ADD SWAP2 SWAP1 PUSH1 0x0 MSTORE PUSH1 0x20 PUSH1 0x0 KECCAK256 SWAP1 JUMPDEST DUP2 SLOAD DUP2 MSTORE SWAP1 PUSH1 0x1 ADD SWAP1 PUSH1 0x20 ADD DUP1 DUP4 GT PUSH2 0x5CB JUMPI DUP3 SWAP1 SUB PUSH1 0x1F AND DUP3 ADD SWAP2 JUMPDEST POP POP POP POP POP SWAP2 POP POP SWAP2 SWAP1 POP JUMP JUMPDEST PUSH1 0x0 PUSH2 0x600 DUP4 PUSH2 0x63A JUMP JUMPDEST SWAP1 POP DUP2 PUSH1 0x0 DUP3 DUP2 SLOAD DUP2 LT PUSH2 0x610 JUMPI INVALID JUMPDEST SWAP1 PUSH1 0x0 MSTORE PUSH1 0x20 PUSH1 0x0 KECCAK256 SWAP1 PUSH1 0x2 MUL ADD PUSH1 0x1 ADD SWAP1 DUP1 MLOAD SWAP1 PUSH1 0x20 ADD SWAP1 PUSH2 0x634 SWAP3 SWAP2 SWAP1 PUSH2 0x747 JUMP JUMPDEST POP POP POP POP JUMP JUMPDEST PUSH1 0x0 DUP1 PUSH1 0x0 SWAP1 POP JUMPDEST PUSH1 0x0 DUP1 SLOAD SWAP1 POP DUP2 LT ISZERO PUSH2 0x68B JUMPI DUP3 PUSH1 0x0 DUP3 DUP2 SLOAD DUP2 LT PUSH2 0x65D JUMPI INVALID JUMPDEST SWAP1 PUSH1 0x0 MSTORE PUSH1 0x20 PUSH1 0x0 KECCAK256 SWAP1 PUSH1 0x2 MUL ADD PUSH1 0x0 ADD SLOAD EQ ISZERO PUSH2 0x67E JUMPI DUP1 SWAP2 POP POP PUSH2 0x6FA JUMP JUMPDEST DUP1 DUP1 PUSH1 0x1 ADD SWAP2 POP POP PUSH2 0x642 JUMP JUMPDEST POP PUSH1 0x40 MLOAD PUSH32 0x8C379A000000000000000000000000000000000000000000000000000000000 DUP2 MSTORE PUSH1 0x4 ADD DUP1 DUP1 PUSH1 0x20 ADD DUP3 DUP2 SUB DUP3 MSTORE PUSH1 0xE DUP2 MSTORE PUSH1 0x20 ADD DUP1 PUSH32 0x55736572206E6F7420666F756E64000000000000000000000000000000000000 DUP2 MSTORE POP PUSH1 0x20 ADD SWAP2 POP POP PUSH1 0x40 MLOAD DUP1 SWAP2 SUB SWAP1 REVERT JUMPDEST SWAP2 SWAP1 POP JUMP JUMPDEST POP DUP1 SLOAD PUSH1 0x1 DUP2 PUSH1 0x1 AND ISZERO PUSH2 0x100 MUL SUB AND PUSH1 0x2 SWAP1 DIV PUSH1 0x0 DUP3 SSTORE DUP1 PUSH1 0x1F LT PUSH2 0x725 JUMPI POP PUSH2 0x744 JUMP JUMPDEST PUSH1 0x1F ADD PUSH1 0x20 SWAP1 DIV SWAP1 PUSH1 0x0 MSTORE PUSH1 0x20 PUSH1 0x0 KECCAK256 SWAP1 DUP2 ADD SWAP1 PUSH2 0x743 SWAP2 SWAP1 PUSH2 0x7D5 JUMP JUMPDEST JUMPDEST POP JUMP JUMPDEST DUP3 DUP1 SLOAD PUSH1 0x1 DUP2 PUSH1 0x1 AND ISZERO PUSH2 0x100 MUL SUB AND PUSH1 0x2 SWAP1 DIV SWAP1 PUSH1 0x0 MSTORE PUSH1 0x20 PUSH1 0x0 KECCAK256 SWAP1 PUSH1 0x1F ADD PUSH1 0x20 SWAP1 DIV DUP2 ADD SWAP3 DUP3 PUSH2 0x77D JUMPI PUSH1 0x0 DUP6 SSTORE PUSH2 0x7C4 JUMP JUMPDEST DUP3 PUSH1 0x1F LT PUSH2 0x796 JUMPI DUP1 MLOAD PUSH1 0xFF NOT AND DUP4 DUP1 ADD OR DUP6 SSTORE PUSH2 0x7C4 JUMP JUMPDEST DUP3 DUP1 ADD PUSH1 0x1 ADD DUP6 SSTORE DUP3 ISZERO PUSH2 0x7C4 JUMPI SWAP2 DUP3 ADD JUMPDEST DUP3 DUP2 GT ISZERO PUSH2 0x7C3 JUMPI DUP3 MLOAD DUP3 SSTORE SWAP2 PUSH1 0x20 ADD SWAP2 SWAP1 PUSH1 0x1 ADD SWAP1 PUSH2 0x7A8 JUMP JUMPDEST JUMPDEST POP SWAP1 POP PUSH2 0x7D1 SWAP2 SWAP1 PUSH2 0x7D5 JUMP JUMPDEST POP SWAP1 JUMP JUMPDEST JUMPDEST DUP1 DUP3 GT ISZERO PUSH2 0x7EE JUMPI PUSH1 0x0 DUP2 PUSH1 0x0 SWAP1 SSTORE POP PUSH1 0x1 ADD PUSH2 0x7D6 JUMP JUMPDEST POP SWAP1 JUMP INVALID LOG2 PUSH5 0x6970667358 0x22 SLT KECCAK256 0xDB PUSH9 0x794656E9367C8179BD GASLIMIT SHL JUMP 0x1E DUP8 0x24 SWAP5 0x2D LOG0 0xEB LOG4 0x5C MSTORE8 0x1F PUSH7 0x4ECF1E4536AC64 PUSH20 0x6F6C634300070600330000000000000000000000 "
				},
				"gasEstimates": {
					"creation": {
						"codeDepositCost": "417600",
						"executionCost": "455",
						"totalCost": "418055"
					},
					"external": {
						"add(string)": "infinite",
						"destory(uint256)": "infinite",
						"nextId()": "1005",
						"read(uint256)": "infinite",
						"update(uint256,string)": "infinite",
						"users(uint256)": "infinite"
					},
					"internal": {
						"getUserIndexById(uint256)": "infinite"
					}
				},
				"methodIdentifiers": {
					"add(string)": "b0c8f9dc",
					"destory(uint256)": "908e049b",
					"nextId()": "61b8ce8c",
					"read(uint256)": "ed2e5a97",
					"update(uint256,string)": "f745630f",
					"users(uint256)": "365b98b2"
				}
			},
			"storageLayout": {
				"storage": [
					{
						"astId": 9,
						"contract": "CRUDTest.sol:CRUDTest",
						"label": "users",
						"offset": 0,
						"slot": "0",
						"type": "t_array(t_struct(User)6_storage)dyn_storage"
					},
					{
						"astId": 11,
						"contract": "CRUDTest.sol:CRUDTest",
						"label": "nextId",
						"offset": 0,
						"slot": "1",
						"type": "t_uint256"
					}
				],
				"types": {
					"t_array(t_struct(User)6_storage)dyn_storage": {
						"base": "t_struct(User)6_storage",
						"encoding": "dynamic_array",
						"label": "struct CRUDTest.User[]",
						"numberOfBytes": "32"
					},
					"t_string_storage": {
						"encoding": "bytes",
						"label": "string",
						"numberOfBytes": "32"
					},
					"t_struct(User)6_storage": {
						"encoding": "inplace",
						"label": "struct CRUDTest.User",
						"members": [
							{
								"astId": 3,
								"contract": "CRUDTest.sol:CRUDTest",
								"label": "id",
								"offset": 0,
								"slot": "0",
								"type": "t_uint256"
							},
							{
								"astId": 5,
								"contract": "CRUDTest.sol:CRUDTest",
								"label": "name",
								"offset": 0,
								"slot": "1",
								"type": "t_string_storage"
							}
						],
						"numberOfBytes": "64"
					},
					"t_uint256": {
						"encoding": "inplace",
						"label": "uint256",
						"numberOfBytes": "32"
					}
				}
			},
			"userdoc": {
				"kind": "user",
				"methods": {},
				"version": 1
			}
		}
	}
}