{
	"ArrayTest.sol": {
		"ArrayContract": {
			"abi": [
				{
					"inputs": [
						{
							"internalType": "uint256",
							"name": "newSize",
							"type": "uint256"
						}
					],
					"name": "changeFlagArraySize",
					"outputs": [],
					"stateMutability": "nonpayable",
					"type": "function"
				},
				{
					"inputs": [
						{
							"internalType": "uint256[]",
							"name": "c",
							"type": "uint256[]"
						}
					],
					"name": "f",
					"outputs": [],
					"stateMutability": "nonpayable",
					"type": "function"
				},
				{
					"inputs": [
						{
							"internalType": "bool[2][]",
							"name": "newPairs",
							"type": "bool[2][]"
						}
					],
					"name": "setAllFlagPairs",
					"outputs": [],
					"stateMutability": "nonpayable",
					"type": "function"
				},
				{
					"inputs": [
						{
							"internalType": "uint256",
							"name": "index",
							"type": "uint256"
						},
						{
							"internalType": "bool",
							"name": "flagA",
							"type": "bool"
						},
						{
							"internalType": "bool",
							"name": "flagB",
							"type": "bool"
						}
					],
					"name": "setFlagPair",
					"outputs": [],
					"stateMutability": "nonpayable",
					"type": "function"
				}
			],
			"devdoc": {
				"kind": "dev",
				"methods": {},
				"version": 1
			},
			"evm": {
				"assembly": "    /* \"ArrayTest.sol\":68:1637  contract ArrayContract {\r... */\n  mstore(0x40, 0x80)\n  callvalue\n  dup1\n  iszero\n  tag_1\n  jumpi\n  0x00\n  dup1\n  revert\ntag_1:\n  pop\n  dataSize(sub_0)\n  dup1\n  dataOffset(sub_0)\n  0x00\n  codecopy\n  0x00\n  return\nstop\n\nsub_0: assembly {\n        /* \"ArrayTest.sol\":68:1637  contract ArrayContract {\r... */\n      mstore(0x40, 0x80)\n      callvalue\n      dup1\n      iszero\n      tag_1\n      jumpi\n      0x00\n      dup1\n      revert\n    tag_1:\n      pop\n      jumpi(tag_2, lt(calldatasize, 0x04))\n      shr(0xe0, calldataload(0x00))\n      dup1\n      0x7bc5bbbf\n      eq\n      tag_3\n      jumpi\n      dup1\n      0x7d7e5e3d\n      eq\n      tag_4\n      jumpi\n      dup1\n      0xdeff71b8\n      eq\n      tag_5\n      jumpi\n      dup1\n      0xf5933f66\n      eq\n      tag_6\n      jumpi\n    tag_2:\n      0x00\n      dup1\n      revert\n        /* \"ArrayTest.sol\":724:1015  function f(uint[] memory c) public {\r... */\n    tag_3:\n      tag_7\n      0x04\n      dup1\n      calldatasize\n      sub\n      0x20\n      dup2\n      lt\n      iszero\n      tag_8\n      jumpi\n      0x00\n      dup1\n      revert\n    tag_8:\n      dup2\n      add\n      swap1\n      dup1\n      dup1\n      calldataload\n      swap1\n      0x20\n      add\n      swap1\n      0x0100000000\n      dup2\n      gt\n      iszero\n      tag_9\n      jumpi\n      0x00\n      dup1\n      revert\n    tag_9:\n      dup3\n      add\n      dup4\n      0x20\n      dup3\n      add\n      gt\n      iszero\n      tag_10\n      jumpi\n      0x00\n      dup1\n      revert\n    tag_10:\n      dup1\n      calldataload\n      swap1\n      0x20\n      add\n      swap2\n      dup5\n      0x20\n      dup4\n      mul\n      dup5\n      add\n      gt\n      0x0100000000\n      dup4\n      gt\n      or\n      iszero\n      tag_11\n      jumpi\n      0x00\n      dup1\n      revert\n    tag_11:\n      swap2\n      swap1\n      dup1\n      dup1\n      0x20\n      mul\n      0x20\n      add\n      mload(0x40)\n      swap1\n      dup2\n      add\n      0x40\n      mstore\n      dup1\n      swap4\n      swap3\n      swap2\n      swap1\n      dup2\n      dup2\n      mstore\n      0x20\n      add\n      dup4\n      dup4\n      0x20\n      mul\n      dup1\n      dup3\n      dup5\n      calldatacopy\n      0x00\n      dup2\n      dup5\n      add\n      mstore\n      not(0x1f)\n      0x1f\n      dup3\n      add\n      and\n      swap1\n      pop\n      dup1\n      dup4\n      add\n      swap3\n      pop\n      pop\n      pop\n      pop\n      pop\n      pop\n      pop\n      swap2\n      swap3\n      swap2\n      swap3\n      swap1\n      pop\n      pop\n      pop\n      tag_12\n      jump\t// in\n    tag_7:\n      stop\n        /* \"ArrayTest.sol\":1023:1178  function setFlagPair(uint index, bool flagA, bool flagB) public {\r... */\n    tag_4:\n      tag_13\n      0x04\n      dup1\n      calldatasize\n      sub\n      0x60\n      dup2\n      lt\n      iszero\n      tag_14\n      jumpi\n      0x00\n      dup1\n      revert\n    tag_14:\n      dup2\n      add\n      swap1\n      dup1\n      dup1\n      calldataload\n      swap1\n      0x20\n      add\n      swap1\n      swap3\n      swap2\n      swap1\n      dup1\n      calldataload\n      iszero\n      iszero\n      swap1\n      0x20\n      add\n      swap1\n      swap3\n      swap2\n      swap1\n      dup1\n      calldataload\n      iszero\n      iszero\n      swap1\n      0x20\n      add\n      swap1\n      swap3\n      swap2\n      swap1\n      pop\n      pop\n      pop\n      tag_15\n      jump\t// in\n    tag_13:\n      stop\n        /* \"ArrayTest.sol\":402:613  function setAllFlagPairs(bool[2][] memory newPairs) public {\r... */\n    tag_5:\n      tag_16\n      0x04\n      dup1\n      calldatasize\n      sub\n      0x20\n      dup2\n      lt\n      iszero\n      tag_17\n      jumpi\n      0x00\n      dup1\n      revert\n    tag_17:\n      dup2\n      add\n      swap1\n      dup1\n      dup1\n      calldataload\n      swap1\n      0x20\n      add\n      swap1\n      0x0100000000\n      dup2\n      gt\n      iszero\n      tag_18\n      jumpi\n      0x00\n      dup1\n      revert\n    tag_18:\n      dup3\n      add\n      dup4\n      0x20\n      dup3\n      add\n      gt\n      iszero\n      tag_19\n      jumpi\n      0x00\n      dup1\n      revert\n    tag_19:\n      dup1\n      calldataload\n      swap1\n      0x20\n      add\n      swap2\n      dup5\n      0x40\n      dup4\n      mul\n      dup5\n      add\n      gt\n      0x0100000000\n      dup4\n      gt\n      or\n      iszero\n      tag_20\n      jumpi\n      0x00\n      dup1\n      revert\n    tag_20:\n      swap2\n      swap1\n      dup1\n      dup1\n      0x20\n      mul\n      0x20\n      add\n      mload(0x40)\n      swap1\n      dup2\n      add\n      0x40\n      mstore\n      dup1\n      swap4\n      swap3\n      swap2\n      swap1\n      dup2\n      dup2\n      mstore\n      0x20\n      add\n      0x00\n      swap1\n    tag_21:\n      dup3\n      dup3\n      lt\n      iszero\n      tag_22\n      jumpi\n      dup5\n      dup5\n      dup4\n      swap1\n      pop\n      0x40\n      mul\n      add\n      0x02\n      dup1\n      0x20\n      mul\n      mload(0x40)\n      swap1\n      dup2\n      add\n      0x40\n      mstore\n      dup1\n      swap3\n      swap2\n      swap1\n      dup3\n      mul(0x20, 0x02)\n      dup1\n      dup3\n      dup5\n      calldatacopy\n      0x00\n      dup2\n      dup5\n      add\n      mstore\n      not(0x1f)\n      0x1f\n      dup3\n      add\n      and\n      swap1\n      pop\n      dup1\n      dup4\n      add\n      swap3\n      pop\n      pop\n      pop\n      pop\n      pop\n      pop\n      dup2\n      mstore\n      0x20\n      add\n      swap1\n      0x01\n      add\n      swap1\n      jump(tag_21)\n    tag_22:\n      pop\n      pop\n      pop\n      pop\n      pop\n      swap2\n      swap3\n      swap2\n      swap3\n      swap1\n      pop\n      pop\n      pop\n      tag_23\n      jump\t// in\n    tag_16:\n      stop\n        /* \"ArrayTest.sol\":1186:1634  function changeFlagArraySize(uint newSize) public {\r... */\n    tag_6:\n      tag_24\n      0x04\n      dup1\n      calldatasize\n      sub\n      0x20\n      dup2\n      lt\n      iszero\n      tag_25\n      jumpi\n      0x00\n      dup1\n      revert\n    tag_25:\n      dup2\n      add\n      swap1\n      dup1\n      dup1\n      calldataload\n      swap1\n      0x20\n      add\n      swap1\n      swap3\n      swap2\n      swap1\n      pop\n      pop\n      pop\n      tag_26\n      jump\t// in\n    tag_24:\n      stop\n        /* \"ArrayTest.sol\":724:1015  function f(uint[] memory c) public {\r... */\n    tag_12:\n        /* \"ArrayTest.sol\":795:815  StructType storage g */\n      0x00\n        /* \"ArrayTest.sol\":818:819  s */\n      0x100001\n        /* \"ArrayTest.sol\":795:819  StructType storage g = s */\n      swap1\n      pop\n        /* \"ArrayTest.sol\":884:885  2 */\n      0x02\n        /* \"ArrayTest.sol\":871:872  g */\n      dup2\n        /* \"ArrayTest.sol\":871:881  g.moreInfo */\n      0x01\n      add\n        /* \"ArrayTest.sol\":871:885  g.moreInfo = 2 */\n      dup2\n      swap1\n      sstore\n      pop\n        /* \"ArrayTest.sol\":1006:1007  c */\n      dup2\n        /* \"ArrayTest.sol\":993:994  g */\n      dup2\n        /* \"ArrayTest.sol\":993:1003  g.contents */\n      0x00\n      add\n        /* \"ArrayTest.sol\":993:1007  g.contents = c */\n      swap1\n      dup1\n      mload\n      swap1\n      0x20\n      add\n      swap1\n      tag_28\n      swap3\n      swap2\n      swap1\n      tag_29\n      jump\t// in\n    tag_28:\n      pop\n        /* \"ArrayTest.sol\":724:1015  function f(uint[] memory c) public {\r... */\n      pop\n      pop\n      jump\t// out\n        /* \"ArrayTest.sol\":1023:1178  function setFlagPair(uint index, bool flagA, bool flagB) public {\r... */\n    tag_15:\n        /* \"ArrayTest.sol\":1123:1128  flagA */\n      dup2\n        /* \"ArrayTest.sol\":1098:1110  pairsOfFlags */\n      0x100000\n        /* \"ArrayTest.sol\":1111:1116  index */\n      dup5\n        /* \"ArrayTest.sol\":1098:1117  pairsOfFlags[index] */\n      dup2\n      sload\n      dup2\n      lt\n      tag_31\n      jumpi\n      invalid\n    tag_31:\n      swap1\n      0x00\n      mstore\n      keccak256(0x00, 0x20)\n      add\n        /* \"ArrayTest.sol\":1118:1119  0 */\n      0x00\n        /* \"ArrayTest.sol\":1098:1120  pairsOfFlags[index][0] */\n      0x02\n      dup2\n      lt\n      tag_33\n      jumpi\n      invalid\n    tag_33:\n      0x20\n      swap2\n      dup3\n      dup3\n      div\n      add\n      swap2\n      swap1\n      mod\n        /* \"ArrayTest.sol\":1098:1128  pairsOfFlags[index][0] = flagA */\n      0x0100\n      exp\n      dup2\n      sload\n      dup2\n      0xff\n      mul\n      not\n      and\n      swap1\n      dup4\n      iszero\n      iszero\n      mul\n      or\n      swap1\n      sstore\n      pop\n        /* \"ArrayTest.sol\":1164:1169  flagB */\n      dup1\n        /* \"ArrayTest.sol\":1139:1151  pairsOfFlags */\n      0x100000\n        /* \"ArrayTest.sol\":1152:1157  index */\n      dup5\n        /* \"ArrayTest.sol\":1139:1158  pairsOfFlags[index] */\n      dup2\n      sload\n      dup2\n      lt\n      tag_35\n      jumpi\n      invalid\n    tag_35:\n      swap1\n      0x00\n      mstore\n      keccak256(0x00, 0x20)\n      add\n        /* \"ArrayTest.sol\":1159:1160  1 */\n      0x01\n        /* \"ArrayTest.sol\":1139:1161  pairsOfFlags[index][1] */\n      0x02\n      dup2\n      lt\n      tag_37\n      jumpi\n      invalid\n    tag_37:\n      0x20\n      swap2\n      dup3\n      dup3\n      div\n      add\n      swap2\n      swap1\n      mod\n        /* \"ArrayTest.sol\":1139:1169  pairsOfFlags[index][1] = flagB */\n      0x0100\n      exp\n      dup2\n      sload\n      dup2\n      0xff\n      mul\n      not\n      and\n      swap1\n      dup4\n      iszero\n      iszero\n      mul\n      or\n      swap1\n      sstore\n      pop\n        /* \"ArrayTest.sol\":1023:1178  function setFlagPair(uint index, bool flagA, bool flagB) public {\r... */\n      pop\n      pop\n      pop\n      jump\t// out\n        /* \"ArrayTest.sol\":402:613  function setAllFlagPairs(bool[2][] memory newPairs) public {\r... */\n    tag_23:\n        /* \"ArrayTest.sol\":597:605  newPairs */\n      dup1\n        /* \"ArrayTest.sol\":582:594  pairsOfFlags */\n      0x100000\n        /* \"ArrayTest.sol\":582:605  pairsOfFlags = newPairs */\n      swap1\n      dup1\n      mload\n      swap1\n      0x20\n      add\n      swap1\n      tag_40\n      swap3\n      swap2\n      swap1\n      tag_41\n      jump\t// in\n    tag_40:\n      pop\n        /* \"ArrayTest.sol\":402:613  function setAllFlagPairs(bool[2][] memory newPairs) public {\r... */\n      pop\n      jump\t// out\n        /* \"ArrayTest.sol\":1186:1634  function changeFlagArraySize(uint newSize) public {\r... */\n    tag_26:\n        /* \"ArrayTest.sol\":1330:1342  pairsOfFlags */\n      0x100000\n        /* \"ArrayTest.sol\":1330:1349  pairsOfFlags.length */\n      dup1\n      sload\n      swap1\n      pop\n        /* \"ArrayTest.sol\":1320:1327  newSize */\n      dup2\n        /* \"ArrayTest.sol\":1320:1349  newSize < pairsOfFlags.length */\n      lt\n        /* \"ArrayTest.sol\":1316:1627  if (newSize < pairsOfFlags.length) {\r... */\n      iszero\n      tag_43\n      jumpi\n        /* \"ArrayTest.sol\":1366:1457  while (pairsOfFlags.length > newSize) {\r... */\n    tag_44:\n        /* \"ArrayTest.sol\":1395:1402  newSize */\n      dup1\n        /* \"ArrayTest.sol\":1373:1385  pairsOfFlags */\n      0x100000\n        /* \"ArrayTest.sol\":1373:1392  pairsOfFlags.length */\n      dup1\n      sload\n      swap1\n      pop\n        /* \"ArrayTest.sol\":1373:1402  pairsOfFlags.length > newSize */\n      gt\n        /* \"ArrayTest.sol\":1366:1457  while (pairsOfFlags.length > newSize) {\r... */\n      iszero\n      tag_45\n      jumpi\n        /* \"ArrayTest.sol\":1423:1435  pairsOfFlags */\n      0x100000\n        /* \"ArrayTest.sol\":1423:1441  pairsOfFlags.pop() */\n      dup1\n      sload\n      dup1\n      tag_46\n      jumpi\n      invalid\n    tag_46:\n      0x01\n      swap1\n      sub\n      dup2\n      dup2\n      swap1\n      0x00\n      mstore\n      keccak256(0x00, 0x20)\n      add\n      0x00\n      tag_48\n      swap2\n      swap1\n      tag_49\n      jump\t// in\n    tag_48:\n      swap1\n      sstore\n        /* \"ArrayTest.sol\":1366:1457  while (pairsOfFlags.length > newSize) {\r... */\n      jump(tag_44)\n    tag_45:\n        /* \"ArrayTest.sol\":1316:1627  if (newSize < pairsOfFlags.length) {\r... */\n      jump(tag_50)\n    tag_43:\n        /* \"ArrayTest.sol\":1488:1500  pairsOfFlags */\n      0x100000\n        /* \"ArrayTest.sol\":1488:1507  pairsOfFlags.length */\n      dup1\n      sload\n      swap1\n      pop\n        /* \"ArrayTest.sol\":1478:1485  newSize */\n      dup2\n        /* \"ArrayTest.sol\":1478:1507  newSize > pairsOfFlags.length */\n      gt\n        /* \"ArrayTest.sol\":1474:1627  if (newSize > pairsOfFlags.length) {\r... */\n      iszero\n      tag_51\n      jumpi\n        /* \"ArrayTest.sol\":1524:1616  while (newSize > pairsOfFlags.length) {\r... */\n    tag_52:\n        /* \"ArrayTest.sol\":1541:1553  pairsOfFlags */\n      0x100000\n        /* \"ArrayTest.sol\":1541:1560  pairsOfFlags.length */\n      dup1\n      sload\n      swap1\n      pop\n        /* \"ArrayTest.sol\":1531:1538  newSize */\n      dup2\n        /* \"ArrayTest.sol\":1531:1560  newSize > pairsOfFlags.length */\n      gt\n        /* \"ArrayTest.sol\":1524:1616  while (newSize > pairsOfFlags.length) {\r... */\n      iszero\n      tag_53\n      jumpi\n        /* \"ArrayTest.sol\":1581:1593  pairsOfFlags */\n      0x100000\n        /* \"ArrayTest.sol\":1581:1600  pairsOfFlags.push() */\n      0x01\n      dup2\n      0x01\n      dup2\n      sload\n      add\n      dup1\n      dup3\n      sstore\n      dup1\n      swap2\n      pop\n      pop\n      sub\n      swap1\n      0x00\n      mstore\n      pop(keccak256(0x00, 0x20))\n      pop\n        /* \"ArrayTest.sol\":1524:1616  while (newSize > pairsOfFlags.length) {\r... */\n      jump(tag_52)\n    tag_53:\n        /* \"ArrayTest.sol\":1474:1627  if (newSize > pairsOfFlags.length) {\r... */\n    tag_51:\n        /* \"ArrayTest.sol\":1316:1627  if (newSize < pairsOfFlags.length) {\r... */\n    tag_50:\n        /* \"ArrayTest.sol\":1186:1634  function changeFlagArraySize(uint newSize) public {\r... */\n      pop\n      jump\t// out\n    tag_29:\n      dup3\n      dup1\n      sload\n      dup3\n      dup3\n      sstore\n      swap1\n      0x00\n      mstore\n      keccak256(0x00, 0x20)\n      swap1\n      dup2\n      add\n      swap3\n      dup3\n      iszero\n      tag_55\n      jumpi\n      swap2\n      0x20\n      mul\n      dup3\n      add\n    tag_56:\n      dup3\n      dup2\n      gt\n      iszero\n      tag_57\n      jumpi\n      dup3\n      mload\n      dup3\n      sstore\n      swap2\n      0x20\n      add\n      swap2\n      swap1\n      0x01\n      add\n      swap1\n      jump(tag_56)\n    tag_57:\n    tag_55:\n      pop\n      swap1\n      pop\n      tag_58\n      swap2\n      swap1\n      tag_59\n      jump\t// in\n    tag_58:\n      pop\n      swap1\n      jump\t// out\n    tag_41:\n      dup3\n      dup1\n      sload\n      dup3\n      dup3\n      sstore\n      swap1\n      0x00\n      mstore\n      keccak256(0x00, 0x20)\n      swap1\n      dup2\n      add\n      swap3\n      dup3\n      iszero\n      tag_60\n      jumpi\n      swap2\n      0x20\n      mul\n      dup3\n      add\n    tag_61:\n      dup3\n      dup2\n      gt\n      iszero\n      tag_62\n      jumpi\n      dup3\n      mload\n      dup3\n      swap1\n      0x02\n      tag_63\n      swap3\n      swap2\n      swap1\n      tag_64\n      jump\t// in\n    tag_63:\n      pop\n      swap2\n      0x20\n      add\n      swap2\n      swap1\n      0x01\n      add\n      swap1\n      jump(tag_61)\n    tag_62:\n    tag_60:\n      pop\n      swap1\n      pop\n      tag_65\n      swap2\n      swap1\n      tag_66\n      jump\t// in\n    tag_65:\n      pop\n      swap1\n      jump\t// out\n    tag_49:\n      pop\n      0x00\n      swap1\n      sstore\n      jump\t// out\n    tag_59:\n    tag_67:\n      dup1\n      dup3\n      gt\n      iszero\n      tag_68\n      jumpi\n      0x00\n      dup2\n      0x00\n      swap1\n      sstore\n      pop\n      0x01\n      add\n      jump(tag_67)\n    tag_68:\n      pop\n      swap1\n      jump\t// out\n    tag_64:\n      dup3\n      add(0x1f, 0x02)\n      0x20\n      swap1\n      div\n      dup2\n      add\n      swap3\n      dup3\n      iszero\n      tag_69\n      jumpi\n      swap2\n      0x20\n      mul\n      dup3\n      add\n      0x00\n    tag_70:\n      dup4\n      dup3\n      gt\n      iszero\n      tag_71\n      jumpi\n      dup4\n      mload\n      dup4\n      dup3\n      0x0100\n      exp\n      dup2\n      sload\n      dup2\n      0xff\n      mul\n      not\n      and\n      swap1\n      dup4\n      iszero\n      iszero\n      mul\n      or\n      swap1\n      sstore\n      pop\n      swap3\n      0x20\n      add\n      swap3\n      0x01\n      add\n      0x20\n      dup2\n      0x00\n      add\n      div\n      swap3\n      dup4\n      add\n      swap3\n      0x01\n      sub\n      mul\n      jump(tag_70)\n    tag_71:\n      dup1\n      iszero\n      tag_72\n      jumpi\n      dup3\n      dup2\n      0x0100\n      exp\n      dup2\n      sload\n      swap1\n      0xff\n      mul\n      not\n      and\n      swap1\n      sstore\n      0x01\n      add\n      0x20\n      dup2\n      0x00\n      add\n      div\n      swap3\n      dup4\n      add\n      swap3\n      0x01\n      sub\n      mul\n      jump(tag_71)\n    tag_72:\n      pop\n    tag_69:\n      pop\n      swap1\n      pop\n      tag_73\n      swap2\n      swap1\n      tag_59\n      jump\t// in\n    tag_73:\n      pop\n      swap1\n      jump\t// out\n    tag_66:\n    tag_74:\n      dup1\n      dup3\n      gt\n      iszero\n      tag_75\n      jumpi\n      0x00\n      dup2\n      dup2\n      tag_76\n      swap2\n      swap1\n      tag_49\n      jump\t// in\n    tag_76:\n      pop\n      0x01\n      add\n      jump(tag_74)\n    tag_75:\n      pop\n      swap1\n      jump\t// out\n\n    auxdata: 0xa264697066735822122091ca69f7e474099fc88c1f5dca74213d9f92850a5fd351331e51993e90649d0264736f6c63430007060033\n}\n",
				"bytecode": {
					"linkReferences": {},
					"object": "608060405234801561001057600080fd5b506105a6806100206000396000f3fe608060405234801561001057600080fd5b506004361061004c5760003560e01c80637bc5bbbf146100515780637d7e5e3d14610109578063deff71b81461014f578063f5933f6614610243575b600080fd5b6101076004803603602081101561006757600080fd5b810190808035906020019064010000000081111561008457600080fd5b82018360208201111561009657600080fd5b803590602001918460208302840111640100000000831117156100b857600080fd5b919080806020026020016040519081016040528093929190818152602001838360200280828437600081840152601f19601f820116905080830192505050505050509192919290505050610271565b005b61014d6004803603606081101561011f57600080fd5b81019080803590602001909291908035151590602001909291908035151590602001909291905050506102a0565b005b6102416004803603602081101561016557600080fd5b810190808035906020019064010000000081111561018257600080fd5b82018360208201111561019457600080fd5b803590602001918460408302840111640100000000831117156101b657600080fd5b9190808060200260200160405190810160405280939291908181526020016000905b8282101561022f578484839050604002016002806020026040519081016040528092919082600260200280828437600081840152601f19601f820116905080830192505050505050815260200190600101906101d8565b5050505050919291929050505061032f565b005b61026f6004803603602081101561025957600080fd5b810190808035906020019092919050505061034b565b005b6000621000019050600281600101819055508181600001908051906020019061029b9291906103e7565b505050565b816210000084815481106102b057fe5b906000526020600020016000600281106102c657fe5b602091828204019190066101000a81548160ff021916908315150217905550806210000084815481106102f557fe5b9060005260206000200160016002811061030b57fe5b602091828204019190066101000a81548160ff021916908315150217905550505050565b80621000009080519060200190610347929190610434565b5050565b621000008054905081101561039f575b806210000080549050111561039a576210000080548061037757fe5b600190038181906000526020600020016000610393919061048f565b905561035b565b6103e4565b62100000805490508111156103e3575b62100000805490508111156103e257621000006001816001815401808255809150500390600052602060002050506103af565b5b5b50565b828054828255906000526020600020908101928215610423579160200282015b82811115610422578251825591602001919060010190610407565b5b5090506104309190610496565b5090565b82805482825590600052602060002090810192821561047e579160200282015b8281111561047d5782518290600261046d9291906104b3565b5091602001919060010190610454565b5b50905061048b919061054c565b5090565b5060009055565b5b808211156104af576000816000905550600101610497565b5090565b826002601f0160209004810192821561053b5791602002820160005b8382111561050c57835183826101000a81548160ff02191690831515021790555092602001926001016020816000010492830192600103026104cf565b80156105395782816101000a81549060ff021916905560010160208160000104928301926001030261050c565b505b5090506105489190610496565b5090565b5b8082111561056c5760008181610563919061048f565b5060010161054d565b509056fea264697066735822122091ca69f7e474099fc88c1f5dca74213d9f92850a5fd351331e51993e90649d0264736f6c63430007060033",
					"opcodes": "PUSH1 0x80 PUSH1 0x40 MSTORE CALLVALUE DUP1 ISZERO PUSH2 0x10 JUMPI PUSH1 0x0 DUP1 REVERT JUMPDEST POP PUSH2 0x5A6 DUP1 PUSH2 0x20 PUSH1 0x0 CODECOPY PUSH1 0x0 RETURN INVALID PUSH1 0x80 PUSH1 0x40 MSTORE CALLVALUE DUP1 ISZERO PUSH2 0x10 JUMPI PUSH1 0x0 DUP1 REVERT JUMPDEST POP PUSH1 0x4 CALLDATASIZE LT PUSH2 0x4C JUMPI PUSH1 0x0 CALLDATALOAD PUSH1 0xE0 SHR DUP1 PUSH4 0x7BC5BBBF EQ PUSH2 0x51 JUMPI DUP1 PUSH4 0x7D7E5E3D EQ PUSH2 0x109 JUMPI DUP1 PUSH4 0xDEFF71B8 EQ PUSH2 0x14F JUMPI DUP1 PUSH4 0xF5933F66 EQ PUSH2 0x243 JUMPI JUMPDEST PUSH1 0x0 DUP1 REVERT JUMPDEST PUSH2 0x107 PUSH1 0x4 DUP1 CALLDATASIZE SUB PUSH1 0x20 DUP2 LT ISZERO PUSH2 0x67 JUMPI PUSH1 0x0 DUP1 REVERT JUMPDEST DUP2 ADD SWAP1 DUP1 DUP1 CALLDATALOAD SWAP1 PUSH1 0x20 ADD SWAP1 PUSH5 0x100000000 DUP2 GT ISZERO PUSH2 0x84 JUMPI PUSH1 0x0 DUP1 REVERT JUMPDEST DUP3 ADD DUP4 PUSH1 0x20 DUP3 ADD GT ISZERO PUSH2 0x96 JUMPI PUSH1 0x0 DUP1 REVERT JUMPDEST DUP1 CALLDATALOAD SWAP1 PUSH1 0x20 ADD SWAP2 DUP5 PUSH1 0x20 DUP4 MUL DUP5 ADD GT PUSH5 0x100000000 DUP4 GT OR ISZERO PUSH2 0xB8 JUMPI PUSH1 0x0 DUP1 REVERT JUMPDEST SWAP2 SWAP1 DUP1 DUP1 PUSH1 0x20 MUL PUSH1 0x20 ADD PUSH1 0x40 MLOAD SWAP1 DUP2 ADD PUSH1 0x40 MSTORE DUP1 SWAP4 SWAP3 SWAP2 SWAP1 DUP2 DUP2 MSTORE PUSH1 0x20 ADD DUP4 DUP4 PUSH1 0x20 MUL DUP1 DUP3 DUP5 CALLDATACOPY PUSH1 0x0 DUP2 DUP5 ADD MSTORE PUSH1 0x1F NOT PUSH1 0x1F DUP3 ADD AND SWAP1 POP DUP1 DUP4 ADD SWAP3 POP POP POP POP POP POP POP SWAP2 SWAP3 SWAP2 SWAP3 SWAP1 POP POP POP PUSH2 0x271 JUMP JUMPDEST STOP JUMPDEST PUSH2 0x14D PUSH1 0x4 DUP1 CALLDATASIZE SUB PUSH1 0x60 DUP2 LT ISZERO PUSH2 0x11F JUMPI PUSH1 0x0 DUP1 REVERT JUMPDEST DUP2 ADD SWAP1 DUP1 DUP1 CALLDATALOAD SWAP1 PUSH1 0x20 ADD SWAP1 SWAP3 SWAP2 SWAP1 DUP1 CALLDATALOAD ISZERO ISZERO SWAP1 PUSH1 0x20 ADD SWAP1 SWAP3 SWAP2 SWAP1 DUP1 CALLDATALOAD ISZERO ISZERO SWAP1 PUSH1 0x20 ADD SWAP1 SWAP3 SWAP2 SWAP1 POP POP POP PUSH2 0x2A0 JUMP JUMPDEST STOP JUMPDEST PUSH2 0x241 PUSH1 0x4 DUP1 CALLDATASIZE SUB PUSH1 0x20 DUP2 LT ISZERO PUSH2 0x165 JUMPI PUSH1 0x0 DUP1 REVERT JUMPDEST DUP2 ADD SWAP1 DUP1 DUP1 CALLDATALOAD SWAP1 PUSH1 0x20 ADD SWAP1 PUSH5 0x100000000 DUP2 GT ISZERO PUSH2 0x182 JUMPI PUSH1 0x0 DUP1 REVERT JUMPDEST DUP3 ADD DUP4 PUSH1 0x20 DUP3 ADD GT ISZERO PUSH2 0x194 JUMPI PUSH1 0x0 DUP1 REVERT JUMPDEST DUP1 CALLDATALOAD SWAP1 PUSH1 0x20 ADD SWAP2 DUP5 PUSH1 0x40 DUP4 MUL DUP5 ADD GT PUSH5 0x100000000 DUP4 GT OR ISZERO PUSH2 0x1B6 JUMPI PUSH1 0x0 DUP1 REVERT JUMPDEST SWAP2 SWAP1 DUP1 DUP1 PUSH1 0x20 MUL PUSH1 0x20 ADD PUSH1 0x40 MLOAD SWAP1 DUP2 ADD PUSH1 0x40 MSTORE DUP1 SWAP4 SWAP3 SWAP2 SWAP1 DUP2 DUP2 MSTORE PUSH1 0x20 ADD PUSH1 0x0 SWAP1 JUMPDEST DUP3 DUP3 LT ISZERO PUSH2 0x22F JUMPI DUP5 DUP5 DUP4 SWAP1 POP PUSH1 0x40 MUL ADD PUSH1 0x2 DUP1 PUSH1 0x20 MUL PUSH1 0x40 MLOAD SWAP1 DUP2 ADD PUSH1 0x40 MSTORE DUP1 SWAP3 SWAP2 SWAP1 DUP3 PUSH1 0x2 PUSH1 0x20 MUL DUP1 DUP3 DUP5 CALLDATACOPY PUSH1 0x0 DUP2 DUP5 ADD MSTORE PUSH1 0x1F NOT PUSH1 0x1F DUP3 ADD AND SWAP1 POP DUP1 DUP4 ADD SWAP3 POP POP POP POP POP POP DUP2 MSTORE PUSH1 0x20 ADD SWAP1 PUSH1 0x1 ADD SWAP1 PUSH2 0x1D8 JUMP JUMPDEST POP POP POP POP POP SWAP2 SWAP3 SWAP2 SWAP3 SWAP1 POP POP POP PUSH2 0x32F JUMP JUMPDEST STOP JUMPDEST PUSH2 0x26F PUSH1 0x4 DUP1 CALLDATASIZE SUB PUSH1 0x20 DUP2 LT ISZERO PUSH2 0x259 JUMPI PUSH1 0x0 DUP1 REVERT JUMPDEST DUP2 ADD SWAP1 DUP1 DUP1 CALLDATALOAD SWAP1 PUSH1 0x20 ADD SWAP1 SWAP3 SWAP2 SWAP1 POP POP POP PUSH2 0x34B JUMP JUMPDEST STOP JUMPDEST PUSH1 0x0 PUSH3 0x100001 SWAP1 POP PUSH1 0x2 DUP2 PUSH1 0x1 ADD DUP2 SWAP1 SSTORE POP DUP2 DUP2 PUSH1 0x0 ADD SWAP1 DUP1 MLOAD SWAP1 PUSH1 0x20 ADD SWAP1 PUSH2 0x29B SWAP3 SWAP2 SWAP1 PUSH2 0x3E7 JUMP JUMPDEST POP POP POP JUMP JUMPDEST DUP2 PUSH3 0x100000 DUP5 DUP2 SLOAD DUP2 LT PUSH2 0x2B0 JUMPI INVALID JUMPDEST SWAP1 PUSH1 0x0 MSTORE PUSH1 0x20 PUSH1 0x0 KECCAK256 ADD PUSH1 0x0 PUSH1 0x2 DUP2 LT PUSH2 0x2C6 JUMPI INVALID JUMPDEST PUSH1 0x20 SWAP2 DUP3 DUP3 DIV ADD SWAP2 SWAP1 MOD PUSH2 0x100 EXP DUP2 SLOAD DUP2 PUSH1 0xFF MUL NOT AND SWAP1 DUP4 ISZERO ISZERO MUL OR SWAP1 SSTORE POP DUP1 PUSH3 0x100000 DUP5 DUP2 SLOAD DUP2 LT PUSH2 0x2F5 JUMPI INVALID JUMPDEST SWAP1 PUSH1 0x0 MSTORE PUSH1 0x20 PUSH1 0x0 KECCAK256 ADD PUSH1 0x1 PUSH1 0x2 DUP2 LT PUSH2 0x30B JUMPI INVALID JUMPDEST PUSH1 0x20 SWAP2 DUP3 DUP3 DIV ADD SWAP2 SWAP1 MOD PUSH2 0x100 EXP DUP2 SLOAD DUP2 PUSH1 0xFF MUL NOT AND SWAP1 DUP4 ISZERO ISZERO MUL OR SWAP1 SSTORE POP POP POP POP JUMP JUMPDEST DUP1 PUSH3 0x100000 SWAP1 DUP1 MLOAD SWAP1 PUSH1 0x20 ADD SWAP1 PUSH2 0x347 SWAP3 SWAP2 SWAP1 PUSH2 0x434 JUMP JUMPDEST POP POP JUMP JUMPDEST PUSH3 0x100000 DUP1 SLOAD SWAP1 POP DUP2 LT ISZERO PUSH2 0x39F JUMPI JUMPDEST DUP1 PUSH3 0x100000 DUP1 SLOAD SWAP1 POP GT ISZERO PUSH2 0x39A JUMPI PUSH3 0x100000 DUP1 SLOAD DUP1 PUSH2 0x377 JUMPI INVALID JUMPDEST PUSH1 0x1 SWAP1 SUB DUP2 DUP2 SWAP1 PUSH1 0x0 MSTORE PUSH1 0x20 PUSH1 0x0 KECCAK256 ADD PUSH1 0x0 PUSH2 0x393 SWAP2 SWAP1 PUSH2 0x48F JUMP JUMPDEST SWAP1 SSTORE PUSH2 0x35B JUMP JUMPDEST PUSH2 0x3E4 JUMP JUMPDEST PUSH3 0x100000 DUP1 SLOAD SWAP1 POP DUP2 GT ISZERO PUSH2 0x3E3 JUMPI JUMPDEST PUSH3 0x100000 DUP1 SLOAD SWAP1 POP DUP2 GT ISZERO PUSH2 0x3E2 JUMPI PUSH3 0x100000 PUSH1 0x1 DUP2 PUSH1 0x1 DUP2 SLOAD ADD DUP1 DUP3 SSTORE DUP1 SWAP2 POP POP SUB SWAP1 PUSH1 0x0 MSTORE PUSH1 0x20 PUSH1 0x0 KECCAK256 POP POP PUSH2 0x3AF JUMP JUMPDEST JUMPDEST JUMPDEST POP JUMP JUMPDEST DUP3 DUP1 SLOAD DUP3 DUP3 SSTORE SWAP1 PUSH1 0x0 MSTORE PUSH1 0x20 PUSH1 0x0 KECCAK256 SWAP1 DUP2 ADD SWAP3 DUP3 ISZERO PUSH2 0x423 JUMPI SWAP2 PUSH1 0x20 MUL DUP3 ADD JUMPDEST DUP3 DUP2 GT ISZERO PUSH2 0x422 JUMPI DUP3 MLOAD DUP3 SSTORE SWAP2 PUSH1 0x20 ADD SWAP2 SWAP1 PUSH1 0x1 ADD SWAP1 PUSH2 0x407 JUMP JUMPDEST JUMPDEST POP SWAP1 POP PUSH2 0x430 SWAP2 SWAP1 PUSH2 0x496 JUMP JUMPDEST POP SWAP1 JUMP JUMPDEST DUP3 DUP1 SLOAD DUP3 DUP3 SSTORE SWAP1 PUSH1 0x0 MSTORE PUSH1 0x20 PUSH1 0x0 KECCAK256 SWAP1 DUP2 ADD SWAP3 DUP3 ISZERO PUSH2 0x47E JUMPI SWAP2 PUSH1 0x20 MUL DUP3 ADD JUMPDEST DUP3 DUP2 GT ISZERO PUSH2 0x47D JUMPI DUP3 MLOAD DUP3 SWAP1 PUSH1 0x2 PUSH2 0x46D SWAP3 SWAP2 SWAP1 PUSH2 0x4B3 JUMP JUMPDEST POP SWAP2 PUSH1 0x20 ADD SWAP2 SWAP1 PUSH1 0x1 ADD SWAP1 PUSH2 0x454 JUMP JUMPDEST JUMPDEST POP SWAP1 POP PUSH2 0x48B SWAP2 SWAP1 PUSH2 0x54C JUMP JUMPDEST POP SWAP1 JUMP JUMPDEST POP PUSH1 0x0 SWAP1 SSTORE JUMP JUMPDEST JUMPDEST DUP1 DUP3 GT ISZERO PUSH2 0x4AF JUMPI PUSH1 0x0 DUP2 PUSH1 0x0 SWAP1 SSTORE POP PUSH1 0x1 ADD PUSH2 0x497 JUMP JUMPDEST POP SWAP1 JUMP JUMPDEST DUP3 PUSH1 0x2 PUSH1 0x1F ADD PUSH1 0x20 SWAP1 DIV DUP2 ADD SWAP3 DUP3 ISZERO PUSH2 0x53B JUMPI SWAP2 PUSH1 0x20 MUL DUP3 ADD PUSH1 0x0 JUMPDEST DUP4 DUP3 GT ISZERO PUSH2 0x50C JUMPI DUP4 MLOAD DUP4 DUP3 PUSH2 0x100 EXP DUP2 SLOAD DUP2 PUSH1 0xFF MUL NOT AND SWAP1 DUP4 ISZERO ISZERO MUL OR SWAP1 SSTORE POP SWAP3 PUSH1 0x20 ADD SWAP3 PUSH1 0x1 ADD PUSH1 0x20 DUP2 PUSH1 0x0 ADD DIV SWAP3 DUP4 ADD SWAP3 PUSH1 0x1 SUB MUL PUSH2 0x4CF JUMP JUMPDEST DUP1 ISZERO PUSH2 0x539 JUMPI DUP3 DUP2 PUSH2 0x100 EXP DUP2 SLOAD SWAP1 PUSH1 0xFF MUL NOT AND SWAP1 SSTORE PUSH1 0x1 ADD PUSH1 0x20 DUP2 PUSH1 0x0 ADD DIV SWAP3 DUP4 ADD SWAP3 PUSH1 0x1 SUB MUL PUSH2 0x50C JUMP JUMPDEST POP JUMPDEST POP SWAP1 POP PUSH2 0x548 SWAP2 SWAP1 PUSH2 0x496 JUMP JUMPDEST POP SWAP1 JUMP JUMPDEST JUMPDEST DUP1 DUP3 GT ISZERO PUSH2 0x56C JUMPI PUSH1 0x0 DUP2 DUP2 PUSH2 0x563 SWAP2 SWAP1 PUSH2 0x48F JUMP JUMPDEST POP PUSH1 0x1 ADD PUSH2 0x54D JUMP JUMPDEST POP SWAP1 JUMP INVALID LOG2 PUSH5 0x6970667358 0x22 SLT KECCAK256 SWAP2 0xCA PUSH10 0xF7E474099FC88C1F5DCA PUSH21 0x213D9F92850A5FD351331E51993E90649D0264736F PUSH13 0x63430007060033000000000000 "
				},
				"gasEstimates": {
					"creation": {
						"codeDepositCost": "289200",
						"executionCost": "331",
						"totalCost": "289531"
					},
					"external": {
						"changeFlagArraySize(uint256)": "infinite",
						"f(uint256[])": "infinite",
						"setAllFlagPairs(bool[2][])": "infinite",
						"setFlagPair(uint256,bool,bool)": "43950"
					}
				},
				"methodIdentifiers": {
					"changeFlagArraySize(uint256)": "f5933f66",
					"f(uint256[])": "7bc5bbbf",
					"setAllFlagPairs(bool[2][])": "deff71b8",
					"setFlagPair(uint256,bool,bool)": "7d7e5e3d"
				}
			},
			"storageLayout": {
				"storage": [
					{
						"astId": 7,
						"contract": "ArrayTest.sol:ArrayContract",
						"label": "aLotOfIntegers",
						"offset": 0,
						"slot": "0",
						"type": "t_array(t_uint256)1048576_storage"
					},
					{
						"astId": 12,
						"contract": "ArrayTest.sol:ArrayContract",
						"label": "pairsOfFlags",
						"offset": 0,
						"slot": "1048576",
						"type": "t_array(t_array(t_bool)2_storage)dyn_storage"
					},
					{
						"astId": 33,
						"contract": "ArrayTest.sol:ArrayContract",
						"label": "s",
						"offset": 0,
						"slot": "1048577",
						"type": "t_struct(StructType)31_storage"
					}
				],
				"types": {
					"t_array(t_array(t_bool)2_storage)dyn_storage": {
						"base": "t_array(t_bool)2_storage",
						"encoding": "dynamic_array",
						"label": "bool[2][]",
						"numberOfBytes": "32"
					},
					"t_array(t_bool)2_storage": {
						"base": "t_bool",
						"encoding": "inplace",
						"label": "bool[2]",
						"numberOfBytes": "32"
					},
					"t_array(t_uint256)1048576_storage": {
						"base": "t_uint256",
						"encoding": "inplace",
						"label": "uint256[1048576]",
						"numberOfBytes": "33554432"
					},
					"t_array(t_uint256)dyn_storage": {
						"base": "t_uint256",
						"encoding": "dynamic_array",
						"label": "uint256[]",
						"numberOfBytes": "32"
					},
					"t_bool": {
						"encoding": "inplace",
						"label": "bool",
						"numberOfBytes": "1"
					},
					"t_struct(StructType)31_storage": {
						"encoding": "inplace",
						"label": "struct ArrayContract.StructType",
						"members": [
							{
								"astId": 28,
								"contract": "ArrayTest.sol:ArrayContract",
								"label": "contents",
								"offset": 0,
								"slot": "0",
								"type": "t_array(t_uint256)dyn_storage"
							},
							{
								"astId": 30,
								"contract": "ArrayTest.sol:ArrayContract",
								"label": "moreInfo",
								"offset": 0,
								"slot": "1",
								"type": "t_uint256"
							}
						],
						"numberOfBytes": "64"
					},
					"t_uint256": {
						"encoding": "inplace",
						"label": "uint256",
						"numberOfBytes": "32"
					}
				}
			},
			"userdoc": {
				"kind": "user",
				"methods": {},
				"version": 1
			}
		}
	}
}